{
  "transactions": [
    {
      "hash": "0xde444865025729c4168c64ec60c53f82f5a53a7c00ad50ae7308a8e4628fbb7d",
      "transactionType": "CALL",
      "contractName": null,
      "contractAddress": "0x0db4acfc2e273ba77c7b481cc33bba5666f9263a",
      "function": null,
      "arguments": null,
      "transaction": {
        "from": "0x5ba6c6f599c74476d335b7ad34c97f9c842e8734",
        "to": "0x0db4acfc2e273ba77c7b481cc33bba5666f9263a",
        "gas": "0x714d",
        "value": "0x38d7ea4c68000",
        "input": "0x",
        "nonce": "0xc",
        "chainId": "0xaa36a7"
      },
      "additionalContracts": [],
      "isFixedGasLimit": false
    },
    {
      "hash": "0x58ae3904851f874248522c122e5a7b1be385aa20804361a55633f216d93e65c5",
      "transactionType": "CALL",
      "contractName": null,
      "contractAddress": "0xb5048e3ef1da4e04deb6f7d0423d06f63869e322",
      "function": "giveFeedback(uint256,uint8,bytes32,bytes32,string,bytes32,bytes)",
      "arguments": [
        "197",
        "5",
        "0x657863656c6c656e740000000000000000000000000000000000000000000000",
        "0x72656c6961626c65000000000000000000000000000000000000000000000000",
        "",
        "0x0000000000000000000000000000000000000000000000000000000000000000",
        "0x00000000000000000000000000000000000000000000000000000000000000c50000000000000000000000000db4acfc2e273ba77c7b481cc33bba5666f9263a0000000000000000000000000000000000000000000000000000000000000064000000000000000000000000000000000000000000000000000000006998f7e40000000000000000000000000000000000000000000000000000000000aa36a70000000000000000000000007177a6867296406881e20d6647232314736dd09a0000000000000000000000005ba6c6f599c74476d335b7ad34c97f9c842e87349c4d1782b74e0cdc59f851c043d72ba1fbe1eec5c408d86ab72c2b17c8b568606780b7f6251b00a66eaa2968a0d2baf65a516d5222ee20dadd9b773bb6a17f4e1b"
      ],
      "transaction": {
        "from": "0x0db4acfc2e273ba77c7b481cc33bba5666f9263a",
        "to": "0xb5048e3ef1da4e04deb6f7d0423d06f63869e322",
        "gas": "0x5a250",
        "value": "0x0",
        "input": "0x155e5bbd00000000000000000000000000000000000000000000000000000000000000c50000000000000000000000000000000000000000000000000000000000000005657863656c6c656e74000000000000000000000000000000000000000000000072656c6961626c6500000000000000000000000000000000000000000000000000000000000000000000000000000000000000000000000000000000000000e0000000000000000000000000000000000000000000000000000000000000000000000000000000000000000000000000000000000000000000000000000001000000000000000000000000000000000000000000000000000000000000000000000000000000000000000000000000000000000000000000000000000000012100000000000000000000000000000000000000000000000000000000000000c50000000000000000000000000db4acfc2e273ba77c7b481cc33bba5666f9263a0000000000000000000000000000000000000000000000000000000000000064000000000000000000000000000000000000000000000000000000006998f7e40000000000000000000000000000000000000000000000000000000000aa36a70000000000000000000000007177a6867296406881e20d6647232314736dd09a0000000000000000000000005ba6c6f599c74476d335b7ad34c97f9c842e87349c4d1782b74e0cdc59f851c043d72ba1fbe1eec5c408d86ab72c2b17c8b568606780b7f6251b00a66eaa2968a0d2baf65a516d5222ee20dadd9b773bb6a17f4e1b00000000000000000000000000000000000000000000000000000000000000",
        "nonce": "0x0",
        "chainId": "0xaa36a7"
      },
      "additionalContracts": [],
      "isFixedGasLimit": false
    },
    {
      "hash": "0x35f5fe0e19ce8f63184f405a05b61c6f30734b47324a80a5eb66b8b974f8c270",
      "transactionType": "CALL",
      "contractName": null,
      "contractAddress": "0xb5048e3ef1da4e04deb6f7d0423d06f63869e322",
      "function": "giveFeedback(uint256,uint8,bytes32,bytes32,string,bytes32,bytes)",
      "arguments": [
        "198",
        "5",
        "0x657863656c6c656e740000000000000000000000000000000000000000000000",
        "0x72656c6961626c65000000000000000000000000000000000000000000000000",
        "",
        "0x0000000000000000000000000000000000000000000000000000000000000000",
        "0x00000000000000000000000000000000000000000000000000000000000000c60000000000000000000000000db4acfc2e273ba77c7b481cc33bba5666f9263a0000000000000000000000000000000000000000000000000000000000000064000000000000000000000000000000000000000000000000000000006998f7e40000000000000000000000000000000000000000000000000000000000aa36a70000000000000000000000007177a6867296406881e20d6647232314736dd09a0000000000000000000000005ba6c6f599c74476d335b7ad34c97f9c842e873450fe07ff118c8459a7a2ee1d44d7cdeb1e47ee1a5b1e06d74963d2de12e859983c0b18d17e3aa01faaaf708d2620a38f50fb1eda192b7ceaec671aace6a3aeef1b"
      ],
      "transaction": {
        "from": "0x0db4acfc2e273ba77c7b481cc33bba5666f9263a",
        "to": "0xb5048e3ef1da4e04deb6f7d0423d06f63869e322",
        "gas": "0x5f739",
        "value": "0x0",
        "input": "0x155e5bbd00000000000000000000000000000000000000000000000000000000000000c60000000000000000000000000000000000000000000000000000000000000005657863656c6c656e74000000000000000000000000000000000000000000000072656c6961626c6500000000000000000000000000000000000000000000000000000000000000000000000000000000000000000000000000000000000000e0000000000000000000000000000000000000000000000000000000000000000000000000000000000000000000000000000000000000000000000000000001000000000000000000000000000000000000000000000000000000000000000000000000000000000000000000000000000000000000000000000000000000012100000000000000000000000000000000000000000000000000000000000000c60000000000000000000000000db4acfc2e273ba77c7b481cc33bba5666f9263a0000000000000000000000000000000000000000000000000000000000000064000000000000000000000000000000000000000000000000000000006998f7e40000000000000000000000000000000000000000000000000000000000aa36a70000000000000000000000007177a6867296406881e20d6647232314736dd09a0000000000000000000000005ba6c6f599c74476d335b7ad34c97f9c842e873450fe07ff118c8459a7a2ee1d44d7cdeb1e47ee1a5b1e06d74963d2de12e859983c0b18d17e3aa01faaaf708d2620a38f50fb1eda192b7ceaec671aace6a3aeef1b00000000000000000000000000000000000000000000000000000000000000",
        "nonce": "0x1",
        "chainId": "0xaa36a7"
      },
      "additionalContracts": [],
      "isFixedGasLimit": false
    },
    {
      "hash": "0x5c2d92bf295fa43ffa60bcde055163cf66a42b8c1a61dfbfe7ec999b9bef1071",
      "transactionType": "CALL",
      "contractName": null,
      "contractAddress": "0xb5048e3ef1da4e04deb6f7d0423d06f63869e322",
      "function": "giveFeedback(uint256,uint8,bytes32,bytes32,string,bytes32,bytes)",
      "arguments": [
        "199",
        "4",
        "0x676f6f6400000000000000000000000000000000000000000000000000000000",
        "0x72656c6961626c65000000000000000000000000000000000000000000000000",
        "",
        "0x0000000000000000000000000000000000000000000000000000000000000000",
        "0x00000000000000000000000000000000000000000000000000000000000000c70000000000000000000000000db4acfc2e273ba77c7b481cc33bba5666f9263a0000000000000000000000000000000000000000000000000000000000000064000000000000000000000000000000000000000000000000000000006998f7e40000000000000000000000000000000000000000000000000000000000aa36a70000000000000000000000007177a6867296406881e20d6647232314736dd09a0000000000000000000000005ba6c6f599c74476d335b7ad34c97f9c842e8734fb90ad543d97a70e6203a86e5b4e50634f2b37fce62d74a58a2e791aad897c1246aa1d103d712e2a4e878d6d7f535498f261c8d5984bf73693bc264772f0bd431b"
      ],
      "transaction": {
        "from": "0x0db4acfc2e273ba77c7b481cc33bba5666f9263a",
        "to": "0xb5048e3ef1da4e04deb6f7d0423d06f63869e322",
        "gas": "0x5a20e",
        "value": "0x0",
        "input": "0x155e5bbd00000000000000000000000000000000000000000000000000000000000000c70000000000000000000000000000000000000000000000000000000000000004676f6f640000000000000000000000000000000000000000000000000000000072656c6961626c6500000000000000000000000000000000000000000000000000000000000000000000000000000000000000000000000000000000000000e0000000000000000000000000000000000000000000000000000000000000000000000000000000000000000000000000000000000000000000000000000001000000000000000000000000000000000000000000000000000000000000000000000000000000000000000000000000000000000000000000000000000000012100000000000000000000000000000000000000000000000000000000000000c70000000000000000000000000db4acfc2e273ba77c7b481cc33bba5666f9263a0000000000000000000000000000000000000000000000000000000000000064000000000000000000000000000000000000000000000000000000006998f7e40000000000000000000000000000000000000000000000000000000000aa36a70000000000000000000000007177a6867296406881e20d6647232314736dd09a0000000000000000000000005ba6c6f599c74476d335b7ad34c97f9c842e8734fb90ad543d97a70e6203a86e5b4e50634f2b37fce62d74a58a2e791aad897c1246aa1d103d712e2a4e878d6d7f535498f261c8d5984bf73693bc264772f0bd431b00000000000000000000000000000000000000000000000000000000000000",
        "nonce": "0x2",
        "chainId": "0xaa36a7"
      },
      "additionalContracts": [],
      "isFixedGasLimit": false
    },
    {
      "hash": "0x28cf8a4e362de4401524e3d8c56ff9e1cbdd03064125e61954641885632d5d87",
      "transactionType": "CALL",
      "contractName": null,
      "contractAddress": "0xb5048e3ef1da4e04deb6f7d0423d06f63869e322",
      "function": "giveFeedback(uint256,uint8,bytes32,bytes32,string,bytes32,bytes)",
      "arguments": [
        "200",
        "1",
        "0x706f6f725f706572666f726d616e636500000000000000000000000000000000",
        "0x756e72656c6961626c6500000000000000000000000000000000000000000000",
        "",
        "0x0000000000000000000000000000000000000000000000000000000000000000",
        "0x00000000000000000000000000000000000000000000000000000000000000c80000000000000000000000000db4acfc2e273ba77c7b481cc33bba5666f9263a0000000000000000000000000000000000000000000000000000000000000064000000000000000000000000000000000000000000000000000000006998f7e40000000000000000000000000000000000000000000000000000000000aa36a70000000000000000000000007177a6867296406881e20d6647232314736dd09a0000000000000000000000005ba6c6f599c74476d335b7ad34c97f9c842e87347a499ae3f1dcedf1dfed4de165e89ff3d92b4d27a5e7fd8f093ede58f8ba0f6767bec6e9fdf3808ceb0fee7908b2cb6307168117868e5fb27865504d42f727571c"
      ],
      "transaction": {
        "from": "0x0db4acfc2e273ba77c7b481cc33bba5666f9263a",
        "to": "0xb5048e3ef1da4e04deb6f7d0423d06f63869e322",
        "gas": "0x5a2f5",
        "value": "0x0",
        "input": "0x155e5bbd00000000000000000000000000000000000000000000000000000000000000c80000000000000000000000000000000000000000000000000000000000000001706f6f725f706572666f726d616e636500000000000000000000000000000000756e72656c6961626c650000000000000000000000000000000000000000000000000000000000000000000000000000000000000000000000000000000000e0000000000000000000000000000000000000000000000000000000000000000000000000000000000000000000000000000000000000000000000000000001000000000000000000000000000000000000000000000000000000000000000000000000000000000000000000000000000000000000000000000000000000012100000000000000000000000000000000000000000000000000000000000000c80000000000000000000000000db4acfc2e273ba77c7b481cc33bba5666f9263a0000000000000000000000000000000000000000000000000000000000000064000000000000000000000000000000000000000000000000000000006998f7e40000000000000000000000000000000000000000000000000000000000aa36a70000000000000000000000007177a6867296406881e20d6647232314736dd09a0000000000000000000000005ba6c6f599c74476d335b7ad34c97f9c842e87347a499ae3f1dcedf1dfed4de165e89ff3d92b4d27a5e7fd8f093ede58f8ba0f6767bec6e9fdf3808ceb0fee7908b2cb6307168117868e5fb27865504d42f727571c00000000000000000000000000000000000000000000000000000000000000",
        "nonce": "0x3",
        "chainId": "0xaa36a7"
      },
      "additionalContracts": [],
      "isFixedGasLimit": false
    }
  ],
  "receipts": [
    {
      "status": "0x1",
      "cumulativeGasUsed": "0x2220a19",
      "logs": [],
      "logsBloom": "0x00000000000000000000000000000000000000000000000000000000000000000000000000000000000000000000000000000000000000000000000000000000000000000000000000000000000000000000000000000000000000000000000000000000000000000000000000000000000000000000000000000000000000000000000000000000000000000000000000000000000000000000000000000000000000000000000000000000000000000000000000000000000000000000000000000000000000000000000000000000000000000000000000000000000000000000000000000000000000000000000000000000000000000000000000000000",
      "type": "0x2",
      "transactionHash": "0xde444865025729c4168c64ec60c53f82f5a53a7c00ad50ae7308a8e4628fbb7d",
      "transactionIndex": "0x66",
      "blockHash": "0x1aaa2009d7c09a4828b018d8978a221fcb5bd29abf8a31833a6c38624750c590",
      "blockNumber": "0x9d3441",
      "gasUsed": "0x5208",
      "effectiveGasPrice": "0x7814f6a",
      "from": "0x5ba6c6f599c74476d335b7ad34c97f9c842e8734",
      "to": "0x0db4acfc2e273ba77c7b481cc33bba5666f9263a",
      "contractAddress": null
    },
    {
      "status": "0x1",
      "cumulativeGasUsed": "0x9d2ab9",
      "logs": [
        {
          "address": "0xb5048e3ef1da4e04deb6f7d0423d06f63869e322",
          "topics": [
            "0x54b3254e4cc01969e70376d20390cc2f6af90539d9adaa78a53ebcda17f78154",
            "0x00000000000000000000000000000000000000000000000000000000000000c5",
            "0x0000000000000000000000000db4acfc2e273ba77c7b481cc33bba5666f9263a",
            "0x657863656c6c656e740000000000000000000000000000000000000000000000"
          ],
          "data": "0x000000000000000000000000000000000000000000000000000000000000000572656c6961626c65000000000000000000000000000000000000000000000000000000000000000000000000000000000000000000000000000000000000008000000000000000000000000000000000000000000000000000000000000000000000000000000000000000000000000000000000000000000000000000000000",
          "blockHash": "0x5bd74eca7a945173b6c813046d1ad18fbd8d7acbee3e283790ad7bebfbf599aa",
          "blockNumber": "0x9d3442",
          "blockTimestamp": "0x6998ea04",
          "transactionHash": "0x58ae3904851f874248522c122e5a7b1be385aa20804361a55633f216d93e65c5",
          "transactionIndex": "0x53",
          "logIndex": "0xd5",
          "removed": false
        }
      ],
      "logsBloom": "0x08002000000000000000000000000000000000000000000000000000000008000000000000000000200004000000000000000000000000000000000000000000000000000000000000000200010000000000000000000000000000000000000000002000000000000000000000000000000000000000000000000000000000000000000000000000000000000000000000000000000200000000000800000000000000000000200000000000000000000000000000000000400000000080000000000000000000000000000000000000000000000020000000000000000000000000000000000000010000000000000000000000000000000000000000000000",
      "type": "0x2",
      "transactionHash": "0x58ae3904851f874248522c122e5a7b1be385aa20804361a55633f216d93e65c5",
      "transactionIndex": "0x53",
      "blockHash": "0x5bd74eca7a945173b6c813046d1ad18fbd8d7acbee3e283790ad7bebfbf599aa",
      "blockNumber": "0x9d3442",
      "gasUsed": "0x41436",
      "effectiveGasPrice": "0x795da09",
      "from": "0x0db4acfc2e273ba77c7b481cc33bba5666f9263a",
      "to": "0xb5048e3ef1da4e04deb6f7d0423d06f63869e322",
      "contractAddress": null
    },
    {
      "status": "0x1",
      "cumulativeGasUsed": "0x2c1ca55",
      "logs": [
        {
          "address": "0xb5048e3ef1da4e04deb6f7d0423d06f63869e322",
          "topics": [
            "0x54b3254e4cc01969e70376d20390cc2f6af90539d9adaa78a53ebcda17f78154",
            "0x00000000000000000000000000000000000000000000000000000000000000c6",
            "0x0000000000000000000000000db4acfc2e273ba77c7b481cc33bba5666f9263a",
            "0x657863656c6c656e740000000000000000000000000000000000000000000000"
          ],
          "data": "0x000000000000000000000000000000000000000000000000000000000000000572656c6961626c65000000000000000000000000000000000000000000000000000000000000000000000000000000000000000000000000000000000000008000000000000000000000000000000000000000000000000000000000000000000000000000000000000000000000000000000000000000000000000000000000",
          "blockHash": "0xc91eed2ced2f537d2109d130506bf820f0aae8cc7ed31183dd1bc3e790e7edeb",
          "blockNumber": "0x9d3443",
          "blockTimestamp": "0x6998ea1c",
          "transactionHash": "0x35f5fe0e19ce8f63184f405a05b61c6f30734b47324a80a5eb66b8b974f8c270",
          "transactionIndex": "0x8c",
          "logIndex": "0x18f",
          "removed": false
        }
      ],
      "logsBloom": "0x08002000000000100000000000000000000000000000000000000000000008000000000000000000200004000000000000000000000000000000000000000000000000000000000000000200000000020000000000000000000000000000000000002000000000000000000000000000000000000000000000000000000000000000000000000000000000000000000000000000000200000000000800000000000000000000000000000000000000000000000000000000400000000000000000000000000000000000000000000004000000000020000000000000000000000000000000000000010000000000000000000000000000000000000000000000",
      "type": "0x2",
      "transactionHash": "0x35f5fe0e19ce8f63184f405a05b61c6f30734b47324a80a5eb66b8b974f8c270",
      "transactionIndex": "0x8c",
      "blockHash": "0xc91eed2ced2f537d2109d130506bf820f0aae8cc7ed31183dd1bc3e790e7edeb",
      "blockNumber": "0x9d3443",
      "gasUsed": "0x41442",
      "effectiveGasPrice": "0x77f89a0",
      "from": "0x0db4acfc2e273ba77c7b481cc33bba5666f9263a",
      "to": "0xb5048e3ef1da4e04deb6f7d0423d06f63869e322",
      "contractAddress": null
    },
    {
      "status": "0x1",
      "cumulativeGasUsed": "0xe62bea",
      "logs": [
        {
          "address": "0xb5048e3ef1da4e04deb6f7d0423d06f63869e322",
          "topics": [
            "0x54b3254e4cc01969e70376d20390cc2f6af90539d9adaa78a53ebcda17f78154",
            "0x00000000000000000000000000000000000000000000000000000000000000c7",
            "0x0000000000000000000000000db4acfc2e273ba77c7b481cc33bba5666f9263a",
            "0x676f6f6400000000000000000000000000000000000000000000000000000000"
          ],
          "data": "0x000000000000000000000000000000000000000000000000000000000000000472656c6961626c65000000000000000000000000000000000000000000000000000000000000000000000000000000000000000000000000000000000000008000000000000000000000000000000000000000000000000000000000000000000000000000000000000000000000000000000000000000000000000000000000",
          "blockHash": "0x5a9fc13144ef1b619055bfa27e4432076d07070acf240ca6e1377b2e80061d0f",
          "blockNumber": "0x9d3444",
          "blockTimestamp": "0x6998ea28",
          "transactionHash": "0x5c2d92bf295fa43ffa60bcde055163cf66a42b8c1a61dfbfe7ec999b9bef1071",
          "transactionIndex": "0x55",
          "logIndex": "0xc3",
          "removed": false
        }
      ],
      "logsBloom": "0x00002000000000800000000000000000000000000000000000000000000008000000000000000000200004000000000000000000000000000000800000000000000000000000000000000000000000400000000000000000000000000000000000002000000000000000000000000000000000000000000000000000000001000000000000000000000000000000000000000000000200000000000800000000000000000000800000000000000000000000000000000000400000000000000000000000000100000000000000000000000000000020000000000000000000000000000000000000000000000000000000000000000000000000000000000000",
      "type": "0x2",
      "transactionHash": "0x5c2d92bf295fa43ffa60bcde055163cf66a42b8c1a61dfbfe7ec999b9bef1071",
      "transactionIndex": "0x55",
      "blockHash": "0x5a9fc13144ef1b619055bfa27e4432076d07070acf240ca6e1377b2e80061d0f",
      "blockNumber": "0x9d3444",
      "gasUsed": "0x41406",
      "effectiveGasPrice": "0x79aaf45",
      "from": "0x0db4acfc2e273ba77c7b481cc33bba5666f9263a",
      "to": "0xb5048e3ef1da4e04deb6f7d0423d06f63869e322",
      "contractAddress": null
    },
    {
      "status": "0x1",
      "cumulativeGasUsed": "0xbe3055",
      "logs": [
        {
          "address": "0xb5048e3ef1da4e04deb6f7d0423d06f63869e322",
          "topics": [
            "0x54b3254e4cc01969e70376d20390cc2f6af90539d9adaa78a53ebcda17f78154",
            "0x00000000000000000000000000000000000000000000000000000000000000c8",
            "0x0000000000000000000000000db4acfc2e273ba77c7b481cc33bba5666f9263a",
            "0x706f6f725f706572666f726d616e636500000000000000000000000000000000"
          ],
          "data": "0x0000000000000000000000000000000000000000000000000000000000000001756e72656c6961626c6500000000000000000000000000000000000000000000000000000000000000000000000000000000000000000000000000000000008000000000000000000000000000000000000000000000000000000000000000000000000000000000000000000000000000000000000000000000000000000000",
          "blockHash": "0x07eb1f22bac5a8e0732564b893011d004dddb04cd5de9cbac004c949612f625c",
          "blockNumber": "0x9d3445",
          "blockTimestamp": "0x6998ea34",
          "transactionHash": "0x28cf8a4e362de4401524e3d8c56ff9e1cbdd03064125e61954641885632d5d87",
          "transactionIndex": "0x4d",
          "logIndex": "0xd7",
          "removed": false
        }
      ],
      "logsBloom": "0x00002000000000000000000000000020000000000000000000000100800008000000000000000000200004000000000100000000000000000000000000000000000000000000000000000000000000000000000000000000000000000000000000002000000000000000000000000000000080000000000000000000000000000000000000000000000000000000000000000000000200000000000800000000000000000000000000000000000000000000000000000000400000000000000000000000000000000000000000000000000000100020000000000000000000000000000000000000000000000000000000000000000000000000000000000000",
      "type": "0x2",
      "transactionHash": "0x28cf8a4e362de4401524e3d8c56ff9e1cbdd03064125e61954641885632d5d87",
      "transactionIndex": "0x4d",
      "blockHash": "0x07eb1f22bac5a8e0732564b893011d004dddb04cd5de9cbac004c949612f625c",
      "blockNumber": "0x9d3445",
      "gasUsed": "0x414ae",
      "effectiveGasPrice": "0x792e3a1",
      "from": "0x0db4acfc2e273ba77c7b481cc33bba5666f9263a",
      "to": "0xb5048e3ef1da4e04deb6f7d0423d06f63869e322",
      "contractAddress": null
    }
  ],
  "libraries": [],
  "pending": [],
  "returns": {},
  "timestamp": 1771629108249,
  "chain": 11155111,
  "commit": "94cba12"
}