{
  "transactions": [
    {
      "hash": "0xf143ad48f1bfc32ddd5c97d89d64848d2eefe3a5c58c144424affe51b45c8c0e",
      "transactionType": "CALL",
      "contractName": "MockUSDC",
      "contractAddress": "0xcbef7d5f764cbf65a2d499d206d1c7cc05978e4f",
      "function": "mint(address,uint256)",
      "arguments": [
        "0x5ba6C6F599C74476d335B7Ad34C97F9c842e8734",
        "100000000"
      ],
      "transaction": {
        "from": "0x5ba6c6f599c74476d335b7ad34c97f9c842e8734",
        "to": "0xcbef7d5f764cbf65a2d499d206d1c7cc05978e4f",
        "gas": "0xc365",
        "value": "0x0",
        "input": "0x40c10f190000000000000000000000005ba6c6f599c74476d335b7ad34c97f9c842e87340000000000000000000000000000000000000000000000000000000005f5e100",
        "nonce": "0x16",
        "chainId": "0xaa36a7"
      },
      "additionalContracts": [],
      "isFixedGasLimit": false
    }
  ],
  "receipts": [
    {
      "status": "0x1",
      "cumulativeGasUsed": "0xad1c16",
      "logs": [
        {
          "address": "0xcbef7d5f764cbf65a2d499d206d1c7cc05978e4f",
          "topics": [
            "0xddf252ad1be2c89b69c2b068fc378daa952ba7f163c4a11628f55a4df523b3ef",
            "0x0000000000000000000000000000000000000000000000000000000000000000",
            "0x0000000000000000000000005ba6c6f599c74476d335b7ad34c97f9c842e8734"
          ],
          "data": "0x0000000000000000000000000000000000000000000000000000000005f5e100",
          "blockHash": "0x297e9d216d1d139d8c6fe577540fa7ff004a6314fe745de1df58cd4040a5a349",
          "blockNumber": "0x9d3827",
          "blockTimestamp": "0x69991a34",
          "transactionHash": "0xf143ad48f1bfc32ddd5c97d89d64848d2eefe3a5c58c144424affe51b45c8c0e",
          "transactionIndex": "0x3a",
          "logIndex": "0x6d",
          "removed": false
        }
      ],
      "logsBloom": "0x00000000000000000000000000000000000000000000000000000000000000000000000000000000000000000000000000020000000000000000000000000000000000000000000000000008000000000000000000000000000000000000000000000000020000000000000000000800000000000000000000000010000000000000000000000000000000000000000000000000000000000000000000000000000000000000000000000000000000000000000000000000000000000000000000000002000000000100000000000000010000000000000000000000000020000000000000000000000002000000000000002000000000000000000040000000",
      "type": "0x2",
      "transactionHash": "0xf143ad48f1bfc32ddd5c97d89d64848d2eefe3a5c58c144424affe51b45c8c0e",
      "transactionIndex": "0x3a",
      "blockHash": "0x297e9d216d1d139d8c6fe577540fa7ff004a6314fe745de1df58cd4040a5a349",
      "blockNumber": "0x9d3827",
      "gasUsed": "0x859b",
      "effectiveGasPrice": "0x5c44c4c",
      "from": "0x5ba6c6f599c74476d335b7ad34c97f9c842e8734",
      "to": "0xcbef7d5f764cbf65a2d499d206d1c7cc05978e4f",
      "contractAddress": null
    }
  ],
  "libraries": [],
  "pending": [],
  "returns": {},
  "timestamp": 1771641396331,
  "chain": 11155111,
  "commit": "2c4a59d"
}