{
  "transactions": [
    {
      "hash": "0x661a090816e935d8fadac07262e806fdf02f27113036dbd8081c35d03bc147b3",
      "transactionType": "CALL",
      "contractName": null,
      "contractAddress": "0xfff9976782d46cc05630d1f6ebab18b2324d6b14",
      "function": "deposit()",
      "arguments": [],
      "transaction": {
        "from": "0x5ba6c6f599c74476d335b7ad34c97f9c842e8734",
        "to": "0xfff9976782d46cc05630d1f6ebab18b2324d6b14",
        "gas": "0xf2ff",
        "value": "0xbcbce7f1b150000",
        "input": "0xd0e30db0",
        "nonce": "0x10",
        "chainId": "0xaa36a7"
      },
      "additionalContracts": [],
      "isFixedGasLimit": false
    },
    {
      "hash": "0x909cbeb99b3115693acd8bb779e92f63138012e4f6378ff418403528c422ca72",
      "transactionType": "CALL",
      "contractName": "MockUSDC",
      "contractAddress": "0xcbef7d5f764cbf65a2d499d206d1c7cc05978e4f",
      "function": "approve(address,uint256)",
      "arguments": [
        "0x000000000022D473030F116dDEE9F6B43aC78BA3",
        "115792089237316195423570985008687907853269984665640564039457584007913129639935"
      ],
      "transaction": {
        "from": "0x5ba6c6f599c74476d335b7ad34c97f9c842e8734",
        "to": "0xcbef7d5f764cbf65a2d499d206d1c7cc05978e4f",
        "gas": "0x10a75",
        "value": "0x0",
        "input": "0x095ea7b3000000000000000000000000000000000022d473030f116ddee9f6b43ac78ba3ffffffffffffffffffffffffffffffffffffffffffffffffffffffffffffffff",
        "nonce": "0x11",
        "chainId": "0xaa36a7"
      },
      "additionalContracts": [],
      "isFixedGasLimit": false
    },
    {
      "hash": "0xb0f2aa99ffd4b65f735ce2af763d3b0b2ce84a2a9f818118cb854b33b268fa76",
      "transactionType": "CALL",
      "contractName": null,
      "contractAddress": "0xfff9976782d46cc05630d1f6ebab18b2324d6b14",
      "function": "approve(address,uint256)",
      "arguments": [
        "0x000000000022D473030F116dDEE9F6B43aC78BA3",
        "115792089237316195423570985008687907853269984665640564039457584007913129639935"
      ],
      "transaction": {
        "from": "0x5ba6c6f599c74476d335b7ad34c97f9c842e8734",
        "to": "0xfff9976782d46cc05630d1f6ebab18b2324d6b14",
        "gas": "0xf9d5",
        "value": "0x0",
        "input": "0x095ea7b3000000000000000000000000000000000022d473030f116ddee9f6b43ac78ba3ffffffffffffffffffffffffffffffffffffffffffffffffffffffffffffffff",
        "nonce": "0x12",
        "chainId": "0xaa36a7"
      },
      "additionalContracts": [],
      "isFixedGasLimit": false
    },
    {
      "hash": "0xa7de3e70a4caa1e9bd16d48b599526f2343323aa197b20f452d0955d43a6f9ae",
      "transactionType": "CALL",
      "contractName": null,
      "contractAddress": "0x000000000022d473030f116ddee9f6b43ac78ba3",
      "function": "approve(address,address,uint160,uint48)",
      "arguments": [
        "0xCbEf7d5f764CbF65a2d499d206d1C7cc05978e4f",
        "0x429ba70129df741B2Ca2a85BC3A2a3328e5c09b4",
        "1461501637330902918203684832716283019655932542975",
        "281474976710655"
      ],
      "transaction": {
        "from": "0x5ba6c6f599c74476d335b7ad34c97f9c842e8734",
        "to": "0x000000000022d473030f116ddee9f6b43ac78ba3",
        "gas": "0x1112d",
        "value": "0x0",
        "input": "0x87517c45000000000000000000000000cbef7d5f764cbf65a2d499d206d1c7cc05978e4f000000000000000000000000429ba70129df741b2ca2a85bc3a2a3328e5c09b4000000000000000000000000ffffffffffffffffffffffffffffffffffffffff0000000000000000000000000000000000000000000000000000ffffffffffff",
        "nonce": "0x13",
        "chainId": "0xaa36a7"
      },
      "additionalContracts": [],
      "isFixedGasLimit": false
    },
    {
      "hash": "0xdb628fefb99c0de497ecb7f385275ff9b1bb08bb6ef96e58d9f71f1a9bfafe1d",
      "transactionType": "CALL",
      "contractName": null,
      "contractAddress": "0x000000000022d473030f116ddee9f6b43ac78ba3",
      "function": "approve(address,address,uint160,uint48)",
      "arguments": [
        "0xfFf9976782d46CC05630D1f6eBAb18b2324d6B14",
        "0x429ba70129df741B2Ca2a85BC3A2a3328e5c09b4",
        "1461501637330902918203684832716283019655932542975",
        "281474976710655"
      ],
      "transaction": {
        "from": "0x5ba6c6f599c74476d335b7ad34c97f9c842e8734",
        "to": "0x000000000022d473030f116ddee9f6b43ac78ba3",
        "gas": "0x1112d",
        "value": "0x0",
        "input": "0x87517c45000000000000000000000000fff9976782d46cc05630d1f6ebab18b2324d6b14000000000000000000000000429ba70129df741b2ca2a85bc3a2a3328e5c09b4000000000000000000000000ffffffffffffffffffffffffffffffffffffffff0000000000000000000000000000000000000000000000000000ffffffffffff",
        "nonce": "0x14",
        "chainId": "0xaa36a7"
      },
      "additionalContracts": [],
      "isFixedGasLimit": false
    },
    {
      "hash": "0x745f66bf576970f1c59570e0749331777d0102ebe7feb35458d3158f7c0d152c",
      "transactionType": "CALL",
      "contractName": null,
      "contractAddress": "0x429ba70129df741b2ca2a85bc3a2a3328e5c09b4",
      "function": "modifyLiquidities(bytes,uint256)",
      "arguments": [
        "0x0000000000000000000000000000000000000000000000000000000000000040000000000000000000000000000000000000000000000000000000000000008000000000000000000000000000000000000000000000000000000000000000030212120000000000000000000000000000000000000000000000000000000000000000000000000000000000000000000000000000000000000000000000000300000000000000000000000000000000000000000000000000000000000000600000000000000000000000000000000000000000000000000000000000000220000000000000000000000000000000000000000000000000000000000000026000000000000000000000000000000000000000000000000000000000000001a0000000000000000000000000cbef7d5f764cbf65a2d499d206d1c7cc05978e4f000000000000000000000000fff9976782d46cc05630d1f6ebab18b2324d6b140000000000000000000000000000000000000000000000000000000000000bb8000000000000000000000000000000000000000000000000000000000000003c000000000000000000000000bc01daf0b890ed562dc325c9ee9429146eeb80c000000000000000000000000000000000000000000000000000000000000302a000000000000000000000000000000000000000000000000000000000000308f400000000000000000000000000000000000000000000000000038d7ea4c6800000000000000000000000000000000000ffffffffffffffffffffffffffffffff00000000000000000000000000000000ffffffffffffffffffffffffffffffff0000000000000000000000005ba6c6f599c74476d335b7ad34c97f9c842e8734000000000000000000000000000000000000000000000000000000000000018000000000000000000000000000000000000000000000000000000000000000000000000000000000000000000000000000000000000000000000000000000020000000000000000000000000cbef7d5f764cbf65a2d499d206d1c7cc05978e4f0000000000000000000000000000000000000000000000000000000000000020000000000000000000000000fff9976782d46cc05630d1f6ebab18b2324d6b14",
        "1771641048"
      ],
      "transaction": {
        "from": "0x5ba6c6f599c74476d335b7ad34c97f9c842e8734",
        "to": "0x429ba70129df741b2ca2a85bc3a2a3328e5c09b4",
        "gas": "0x87c9c",
        "value": "0x0",
        "input": "0xdd46508f000000000000000000000000000000000000000000000000000000000000004000000000000000000000000000000000000000000000000000000000699918d800000000000000000000000000000000000000000000000000000000000003400000000000000000000000000000000000000000000000000000000000000040000000000000000000000000000000000000000000000000000000000000008000000000000000000000000000000000000000000000000000000000000000030212120000000000000000000000000000000000000000000000000000000000000000000000000000000000000000000000000000000000000000000000000300000000000000000000000000000000000000000000000000000000000000600000000000000000000000000000000000000000000000000000000000000220000000000000000000000000000000000000000000000000000000000000026000000000000000000000000000000000000000000000000000000000000001a0000000000000000000000000cbef7d5f764cbf65a2d499d206d1c7cc05978e4f000000000000000000000000fff9976782d46cc05630d1f6ebab18b2324d6b140000000000000000000000000000000000000000000000000000000000000bb8000000000000000000000000000000000000000000000000000000000000003c000000000000000000000000bc01daf0b890ed562dc325c9ee9429146eeb80c000000000000000000000000000000000000000000000000000000000000302a000000000000000000000000000000000000000000000000000000000000308f400000000000000000000000000000000000000000000000000038d7ea4c6800000000000000000000000000000000000ffffffffffffffffffffffffffffffff00000000000000000000000000000000ffffffffffffffffffffffffffffffff0000000000000000000000005ba6c6f599c74476d335b7ad34c97f9c842e8734000000000000000000000000000000000000000000000000000000000000018000000000000000000000000000000000000000000000000000000000000000000000000000000000000000000000000000000000000000000000000000000020000000000000000000000000cbef7d5f764cbf65a2d499d206d1c7cc05978e4f0000000000000000000000000000000000000000000000000000000000000020000000000000000000000000fff9976782d46cc05630d1f6ebab18b2324d6b14",
        "nonce": "0x15",
        "chainId": "0xaa36a7"
      },
      "additionalContracts": [],
      "isFixedGasLimit": false
    }
  ],
  "receipts": [
    {
      "status": "0x1",
      "cumulativeGasUsed": "0x377008",
      "logs": [
        {
          "address": "0xfff9976782d46cc05630d1f6ebab18b2324d6b14",
          "topics": [
            "0xe1fffcc4923d04b559f4d29a8bfc6cda04eb5b0d3c460751c2402c5c5cc9109c",
            "0x0000000000000000000000005ba6c6f599c74476d335b7ad34c97f9c842e8734"
          ],
          "data": "0x0000000000000000000000000000000000000000000000000bcbce7f1b150000",
          "blockHash": "0x22dac4ab2a40b0d6cc03453297c830c8d53a8073581838b052823aa334fb998e",
          "blockNumber": "0x9d37f9",
          "blockTimestamp": "0x699917d0",
          "transactionHash": "0x661a090816e935d8fadac07262e806fdf02f27113036dbd8081c35d03bc147b3",
          "transactionIndex": "0x34",
          "logIndex": "0x36",
          "removed": false
        }
      ],
      "logsBloom": "0x00000000000000000000000000000000000000000000000000000000000000000000000000000000000000000000000000020000000000000000000000000000000000000000000000000000000000000000000000000000000000008000000000000000000000000000000000000000000000000000000000000000000000000040000000000000000000000000000000000001000000000000000000000000000020000000000000000000000000000000000000000000000000000000000000000000000000000102000000000000010000000000000000000000000000000000000000000000000000000000000000000000000000400000000000000000",
      "type": "0x2",
      "transactionHash": "0x661a090816e935d8fadac07262e806fdf02f27113036dbd8081c35d03bc147b3",
      "transactionIndex": "0x34",
      "blockHash": "0x22dac4ab2a40b0d6cc03453297c830c8d53a8073581838b052823aa334fb998e",
      "blockNumber": "0x9d37f9",
      "gasUsed": "0xafee",
      "effectiveGasPrice": "0x3b0b0ef",
      "from": "0x5ba6c6f599c74476d335b7ad34c97f9c842e8734",
      "to": "0xfff9976782d46cc05630d1f6ebab18b2324d6b14",
      "contractAddress": null
    },
    {
      "status": "0x1",
      "cumulativeGasUsed": "0x38263a",
      "logs": [
        {
          "address": "0xcbef7d5f764cbf65a2d499d206d1c7cc05978e4f",
          "topics": [
            "0x8c5be1e5ebec7d5bd14f71427d1e84f3dd0314c0f7b2291e5b200ac8c7c3b925",
            "0x0000000000000000000000005ba6c6f599c74476d335b7ad34c97f9c842e8734",
            "0x000000000000000000000000000000000022d473030f116ddee9f6b43ac78ba3"
          ],
          "data": "0xffffffffffffffffffffffffffffffffffffffffffffffffffffffffffffffff",
          "blockHash": "0x22dac4ab2a40b0d6cc03453297c830c8d53a8073581838b052823aa334fb998e",
          "blockNumber": "0x9d37f9",
          "blockTimestamp": "0x699917d0",
          "transactionHash": "0x745f66bf576970f1c59570e0749331777d0102ebe7feb35458d3158f7c0d152c",
          "transactionIndex": "0x35",
          "logIndex": "0x37",
          "removed": false
        }
      ],
      "logsBloom": "0x00000000000000000000000000000000000000000000000000000000000000000000000000000000000000000000000000020000800000000000000000200000000000000000000000004000000000000000000000000800000000000000000000000000000000000000000000000000000000000000000000000000000000000000000000000000000000000000000000000000000000000000000000000000020000000000000000000000000000000000000000000000000000000000000000000000000000000100000000000000010000000000000000000000000000000010000000000000000002000000000000002000000000000000000040000000",
      "type": "0x2",
      "transactionHash": "0x745f66bf576970f1c59570e0749331777d0102ebe7feb35458d3158f7c0d152c",
      "transactionIndex": "0x35",
      "blockHash": "0x22dac4ab2a40b0d6cc03453297c830c8d53a8073581838b052823aa334fb998e",
      "blockNumber": "0x9d37f9",
      "gasUsed": "0xb632",
      "effectiveGasPrice": "0x3b0b0ef",
      "from": "0x5ba6c6f599c74476d335b7ad34c97f9c842e8734",
      "to": "0xcbef7d5f764cbf65a2d499d206d1c7cc05978e4f",
      "contractAddress": null
    },
    {
      "status": "0x1",
      "cumulativeGasUsed": "0x38db1a",
      "logs": [
        {
          "address": "0xfff9976782d46cc05630d1f6ebab18b2324d6b14",
          "topics": [
            "0x8c5be1e5ebec7d5bd14f71427d1e84f3dd0314c0f7b2291e5b200ac8c7c3b925",
            "0x0000000000000000000000005ba6c6f599c74476d335b7ad34c97f9c842e8734",
            "0x000000000000000000000000000000000022d473030f116ddee9f6b43ac78ba3"
          ],
          "data": "0xffffffffffffffffffffffffffffffffffffffffffffffffffffffffffffffff",
          "blockHash": "0x22dac4ab2a40b0d6cc03453297c830c8d53a8073581838b052823aa334fb998e",
          "blockNumber": "0x9d37f9",
          "blockTimestamp": "0x699917d0",
          "transactionHash": "0xdb628fefb99c0de497ecb7f385275ff9b1bb08bb6ef96e58d9f71f1a9bfafe1d",
          "transactionIndex": "0x36",
          "logIndex": "0x38",
          "removed": false
        }
      ],
      "logsBloom": "0x00000000000000000000000000000000000000000000000000000000000000000000000000000000000000000000000000020000800000000000000000200000000000000000000000004000000000000000000000000800000000000000000000000000000000000000000000000000000000000000000000000000000000000040000000000000000000000000000000000000000000000000000000000000020020000000000000000000000000000000000000000000000000000000000000000000000000000102000000000000010000000000000000000000000000000010000000000000000000000000000000000000000000000000000000000000",
      "type": "0x2",
      "transactionHash": "0xdb628fefb99c0de497ecb7f385275ff9b1bb08bb6ef96e58d9f71f1a9bfafe1d",
      "transactionIndex": "0x36",
      "blockHash": "0x22dac4ab2a40b0d6cc03453297c830c8d53a8073581838b052823aa334fb998e",
      "blockNumber": "0x9d37f9",
      "gasUsed": "0xb4e0",
      "effectiveGasPrice": "0x3b0b0ef",
      "from": "0x5ba6c6f599c74476d335b7ad34c97f9c842e8734",
      "to": "0xfff9976782d46cc05630d1f6ebab18b2324d6b14",
      "contractAddress": null
    },
    {
      "status": "0x1",
      "cumulativeGasUsed": "0x3995e4",
      "logs": [
        {
          "address": "0x000000000022d473030f116ddee9f6b43ac78ba3",
          "topics": [
            "0xda9fa7c1b00402c17d0161b249b1ab8bbec047c5a52207b9c112deffd817036b",
            "0x0000000000000000000000005ba6c6f599c74476d335b7ad34c97f9c842e8734",
            "0x000000000000000000000000cbef7d5f764cbf65a2d499d206d1c7cc05978e4f",
            "0x000000000000000000000000429ba70129df741b2ca2a85bc3a2a3328e5c09b4"
          ],
          "data": "0x000000000000000000000000ffffffffffffffffffffffffffffffffffffffff0000000000000000000000000000000000000000000000000000ffffffffffff",
          "blockHash": "0x22dac4ab2a40b0d6cc03453297c830c8d53a8073581838b052823aa334fb998e",
          "blockNumber": "0x9d37f9",
          "blockTimestamp": "0x699917d0",
          "transactionHash": "0x909cbeb99b3115693acd8bb779e92f63138012e4f6378ff418403528c422ca72",
          "transactionIndex": "0x37",
          "logIndex": "0x39",
          "removed": false
        }
      ],
      "logsBloom": "0x00010000000000000000000000000000000000000000000000000000000000000000000000000040080000000000000000020000000000000000000000080000000000000000000000000000000000000000000000000000000000000000000000000000000000000000000000000000000000000000000000000800000010000030000000000000000000000000000000000000000000000000000000000000000000000000000000000000000000000000000000000000000000080000000000000000000000000100000000000000010000000000000040000000000000000000000000080000000000000000000000000000000000000000000000000400",
      "type": "0x2",
      "transactionHash": "0x909cbeb99b3115693acd8bb779e92f63138012e4f6378ff418403528c422ca72",
      "transactionIndex": "0x37",
      "blockHash": "0x22dac4ab2a40b0d6cc03453297c830c8d53a8073581838b052823aa334fb998e",
      "blockNumber": "0x9d37f9",
      "gasUsed": "0xbaca",
      "effectiveGasPrice": "0x3b0b0ef",
      "from": "0x5ba6c6f599c74476d335b7ad34c97f9c842e8734",
      "to": "0x000000000022d473030f116ddee9f6b43ac78ba3",
      "contractAddress": null
    },
    {
      "status": "0x1",
      "cumulativeGasUsed": "0x3a50ae",
      "logs": [
        {
          "address": "0x000000000022d473030f116ddee9f6b43ac78ba3",
          "topics": [
            "0xda9fa7c1b00402c17d0161b249b1ab8bbec047c5a52207b9c112deffd817036b",
            "0x0000000000000000000000005ba6c6f599c74476d335b7ad34c97f9c842e8734",
            "0x000000000000000000000000fff9976782d46cc05630d1f6ebab18b2324d6b14",
            "0x000000000000000000000000429ba70129df741b2ca2a85bc3a2a3328e5c09b4"
          ],
          "data": "0x000000000000000000000000ffffffffffffffffffffffffffffffffffffffff0000000000000000000000000000000000000000000000000000ffffffffffff",
          "blockHash": "0x22dac4ab2a40b0d6cc03453297c830c8d53a8073581838b052823aa334fb998e",
          "blockNumber": "0x9d37f9",
          "blockTimestamp": "0x699917d0",
          "transactionHash": "0xb0f2aa99ffd4b65f735ce2af763d3b0b2ce84a2a9f818118cb854b33b268fa76",
          "transactionIndex": "0x38",
          "logIndex": "0x3a",
          "removed": false
        }
      ],
      "logsBloom": "0x00010000001000000000000000000000000000000000000000000000000000000000000000000040080000000000000000020800000000000000000000080000000000000000000000000000000000000000000000000000000000000000000000000000000000000000000000000000000000000000000000000800000000000020000000000000000000000000000000000000000000000000000000000000000000000000000000000000000000000000000000000000000000080000000000000000000000000100000001000000010000000000000040000000000000000000000000000000000000000000000000000000000000000000000000000400",
      "type": "0x2",
      "transactionHash": "0xb0f2aa99ffd4b65f735ce2af763d3b0b2ce84a2a9f818118cb854b33b268fa76",
      "transactionIndex": "0x38",
      "blockHash": "0x22dac4ab2a40b0d6cc03453297c830c8d53a8073581838b052823aa334fb998e",
      "blockNumber": "0x9d37f9",
      "gasUsed": "0xbaca",
      "effectiveGasPrice": "0x3b0b0ef",
      "from": "0x5ba6c6f599c74476d335b7ad34c97f9c842e8734",
      "to": "0x000000000022d473030f116ddee9f6b43ac78ba3",
      "contractAddress": null
    },
    {
      "status": "0x1",
      "cumulativeGasUsed": "0x40759d",
      "logs": [
        {
          "address": "0x429ba70129df741b2ca2a85bc3a2a3328e5c09b4",
          "topics": [
            "0xddf252ad1be2c89b69c2b068fc378daa952ba7f163c4a11628f55a4df523b3ef",
            "0x0000000000000000000000000000000000000000000000000000000000000000",
            "0x0000000000000000000000005ba6c6f599c74476d335b7ad34c97f9c842e8734",
            "0x0000000000000000000000000000000000000000000000000000000000005c98"
          ],
          "data": "0x",
          "blockHash": "0x22dac4ab2a40b0d6cc03453297c830c8d53a8073581838b052823aa334fb998e",
          "blockNumber": "0x9d37f9",
          "blockTimestamp": "0x699917d0",
          "transactionHash": "0xa7de3e70a4caa1e9bd16d48b599526f2343323aa197b20f452d0955d43a6f9ae",
          "transactionIndex": "0x39",
          "logIndex": "0x3b",
          "removed": false
        },
        {
          "address": "0xe03a1074c86cfedd5c142c4f04f1a1536e203543",
          "topics": [
            "0xf208f4912782fd25c7f114ca3723a2d5dd6f3bcc3ac8db5af63baa85f711d5ec",
            "0x115103425bcd51a9c5bce5c27ffcd0c191fc91c8473956959000ba602865d8e4",
            "0x000000000000000000000000429ba70129df741b2ca2a85bc3a2a3328e5c09b4"
          ],
          "data": "0x00000000000000000000000000000000000000000000000000000000000302a000000000000000000000000000000000000000000000000000000000000308f400000000000000000000000000000000000000000000000000038d7ea4c680000000000000000000000000000000000000000000000000000000000000005c98",
          "blockHash": "0x22dac4ab2a40b0d6cc03453297c830c8d53a8073581838b052823aa334fb998e",
          "blockNumber": "0x9d37f9",
          "blockTimestamp": "0x699917d0",
          "transactionHash": "0xa7de3e70a4caa1e9bd16d48b599526f2343323aa197b20f452d0955d43a6f9ae",
          "transactionIndex": "0x39",
          "logIndex": "0x3c",
          "removed": false
        },
        {
          "address": "0xcbef7d5f764cbf65a2d499d206d1c7cc05978e4f",
          "topics": [
            "0xddf252ad1be2c89b69c2b068fc378daa952ba7f163c4a11628f55a4df523b3ef",
            "0x0000000000000000000000005ba6c6f599c74476d335b7ad34c97f9c842e8734",
            "0x000000000000000000000000e03a1074c86cfedd5c142c4f04f1a1536e203543"
          ],
          "data": "0x0000000000000000000000000000000000000000000000000000000077c31845",
          "blockHash": "0x22dac4ab2a40b0d6cc03453297c830c8d53a8073581838b052823aa334fb998e",
          "blockNumber": "0x9d37f9",
          "blockTimestamp": "0x699917d0",
          "transactionHash": "0xa7de3e70a4caa1e9bd16d48b599526f2343323aa197b20f452d0955d43a6f9ae",
          "transactionIndex": "0x39",
          "logIndex": "0x3d",
          "removed": false
        },
        {
          "address": "0xfff9976782d46cc05630d1f6ebab18b2324d6b14",
          "topics": [
            "0xddf252ad1be2c89b69c2b068fc378daa952ba7f163c4a11628f55a4df523b3ef",
            "0x0000000000000000000000005ba6c6f599c74476d335b7ad34c97f9c842e8734",
            "0x000000000000000000000000e03a1074c86cfedd5c142c4f04f1a1536e203543"
          ],
          "data": "0x0000000000000000000000000000000000000000000000000ae0c2fcda6165e4",
          "blockHash": "0x22dac4ab2a40b0d6cc03453297c830c8d53a8073581838b052823aa334fb998e",
          "blockNumber": "0x9d37f9",
          "blockTimestamp": "0x699917d0",
          "transactionHash": "0xa7de3e70a4caa1e9bd16d48b599526f2343323aa197b20f452d0955d43a6f9ae",
          "transactionIndex": "0x39",
          "logIndex": "0x3e",
          "removed": false
        }
      ],
      "logsBloom": "0x00000000000400000000001000000000000000000000000000000000080000000000000000000040080000000000000000020100000000000000000000000000000000000000000000000008000000000000000000000000000000000000000000000000020000000000000080000800020000000400100000000810000000000040000001000000000014000000000000000000000000000000000000000000000024000000000000020000000000000000000000400000000000000000000000000002000000000102000000000000010000000000000000001000000020001000000000800000000002000000000004002000000000000000000040000000",
      "type": "0x2",
      "transactionHash": "0xa7de3e70a4caa1e9bd16d48b599526f2343323aa197b20f452d0955d43a6f9ae",
      "transactionIndex": "0x39",
      "blockHash": "0x22dac4ab2a40b0d6cc03453297c830c8d53a8073581838b052823aa334fb998e",
      "blockNumber": "0x9d37f9",
      "gasUsed": "0x624ef",
      "effectiveGasPrice": "0x3b0b0ef",
      "from": "0x5ba6c6f599c74476d335b7ad34c97f9c842e8734",
      "to": "0x429ba70129df741b2ca2a85bc3a2a3328e5c09b4",
      "contractAddress": null
    }
  ],
  "libraries": [],
  "pending": [],
  "returns": {},
  "timestamp": 1771640785511,
  "chain": 11155111,
  "commit": "13e6474"
}