{
  "transactions": [
    {
      "hash": "0x9b828fd21a10a068fffb7564f74e31e38d2b5c5a585f5e53f03b173901cdb257",
      "transactionType": "CALL",
      "contractName": null,
      "contractAddress": "0x7177a6867296406881e20d6647232314736dd09a",
      "function": "register(string)",
      "arguments": [
        "data:application/json;base64,eyJuYW1lIjoiU2xpcHBhZ2UgR3VhcmRpYW4iLCJkZXNjcmlwdGlvbiI6IlByb3RlY3RzIGZyb20gbGFyZ2Ugc3dhcHMiLCJzdHJhdGVneSI6Im1heF9hbW91bnQiLCJtYXhBbW91bnQiOiIxIEVUSCJ9"
      ],
      "transaction": {
        "from": "0x5ba6c6f599c74476d335b7ad34c97f9c842e8734",
        "to": "0x7177a6867296406881e20d6647232314736dd09a",
        "gas": "0x50fc3",
        "value": "0x0",
        "input": "0xf2c298be000000000000000000000000000000000000000000000000000000000000002000000000000000000000000000000000000000000000000000000000000000b5646174613a6170706c69636174696f6e2f6a736f6e3b6261736536342c65794a755957316c496a6f6955327870634842685a32556752335668636d5270595734694c434a6b5a584e6a636d6c7764476c7662694936496c42796233526c5933527a49475a7962323067624746795a3255676333646863484d694c434a7a64484a686447566e65534936496d31686546396862573931626e51694c434a745958684262573931626e51694f6949784945565553434a390000000000000000000000",
        "nonce": "0x8",
        "chainId": "0xaa36a7"
      },
      "additionalContracts": [],
      "isFixedGasLimit": false
    },
    {
      "hash": "0xb802a35534d36bb4dfefa0a3f7a186ab5136e3e7e619e15e4be52d48185564f5",
      "transactionType": "CALL",
      "contractName": null,
      "contractAddress": "0x7177a6867296406881e20d6647232314736dd09a",
      "function": "register(string)",
      "arguments": [
        "data:application/json;base64,eyJuYW1lIjoiT3JhY2xlIENoZWNrZXIiLCJkZXNjcmlwdGlvbiI6IlZhbGlkYXRlcyBwcmljZXMgdnMgQ2hhaW5saW5rIiwic3RyYXRlZ3kiOiJvcmFjbGVfdmFsaWRhdGlvbiIsIm9yYWNsZSI6IkVUSC9VU0QifQ=="
      ],
      "transaction": {
        "from": "0x5ba6c6f599c74476d335b7ad34c97f9c842e8734",
        "to": "0x7177a6867296406881e20d6647232314736dd09a",
        "gas": "0x52e89",
        "value": "0x0",
        "input": "0xf2c298be000000000000000000000000000000000000000000000000000000000000002000000000000000000000000000000000000000000000000000000000000000c1646174613a6170706c69636174696f6e2f6a736f6e3b6261736536342c65794a755957316c496a6f6954334a685932786c49454e6f5a574e725a5849694c434a6b5a584e6a636d6c7764476c7662694936496c5a6862476c6b5958526c63794277636d6c6a5a584d67646e4d6751326868615735736157357249697769633352795958526c5a336b694f694a76636d466a62475666646d46736157526864476c7662694973496d397959574e735a534936496b5655534339565530516966513d3d00000000000000000000000000000000000000000000000000000000000000",
        "nonce": "0x9",
        "chainId": "0xaa36a7"
      },
      "additionalContracts": [],
      "isFixedGasLimit": false
    }
  ],
  "receipts": [
    {
      "status": "0x1",
      "cumulativeGasUsed": "0x1636a77",
      "logs": [
        {
          "address": "0x7177a6867296406881e20d6647232314736dd09a",
          "topics": [
            "0xddf252ad1be2c89b69c2b068fc378daa952ba7f163c4a11628f55a4df523b3ef",
            "0x0000000000000000000000000000000000000000000000000000000000000000",
            "0x0000000000000000000000005ba6c6f599c74476d335b7ad34c97f9c842e8734",
            "0x00000000000000000000000000000000000000000000000000000000000000c5"
          ],
          "data": "0x",
          "blockHash": "0x1faa1bd9bed414e3eb6f4167abb10ecfdbd0c0f2ae80ac231c40ccc51a56458e",
          "blockNumber": "0x9d32b4",
          "blockTimestamp": "0x6998d66c",
          "transactionHash": "0x9b828fd21a10a068fffb7564f74e31e38d2b5c5a585f5e53f03b173901cdb257",
          "transactionIndex": "0x62",
          "logIndex": "0xe1",
          "removed": false
        },
        {
          "address": "0x7177a6867296406881e20d6647232314736dd09a",
          "topics": [
            "0xca52e62c367d81bb2e328eb795f7c7ba24afb478408a26c0e201d155c449bc4a",
            "0x00000000000000000000000000000000000000000000000000000000000000c5",
            "0x0000000000000000000000005ba6c6f599c74476d335b7ad34c97f9c842e8734"
          ],
          "data": "0x000000000000000000000000000000000000000000000000000000000000002000000000000000000000000000000000000000000000000000000000000000b5646174613a6170706c69636174696f6e2f6a736f6e3b6261736536342c65794a755957316c496a6f6955327870634842685a32556752335668636d5270595734694c434a6b5a584e6a636d6c7764476c7662694936496c42796233526c5933527a49475a7962323067624746795a3255676333646863484d694c434a7a64484a686447566e65534936496d31686546396862573931626e51694c434a745958684262573931626e51694f6949784945565553434a390000000000000000000000",
          "blockHash": "0x1faa1bd9bed414e3eb6f4167abb10ecfdbd0c0f2ae80ac231c40ccc51a56458e",
          "blockNumber": "0x9d32b4",
          "blockTimestamp": "0x6998d66c",
          "transactionHash": "0x9b828fd21a10a068fffb7564f74e31e38d2b5c5a585f5e53f03b173901cdb257",
          "transactionIndex": "0x62",
          "logIndex": "0xe2",
          "removed": false
        }
      ],
      "logsBloom": "0x00000000000000400000000000000000000000000000000000000000000000000000000000000000000000200000000000020000000000000000000000200000000000000000000000000008010000000000000000000000000000000000000000000000020000000000000000000800000000000000000000000010000000000000000000000000000000000000000080000000000000000000000000000000000000000000200040000000000000000000000000000000000000000080000000000002000000000100000000000000010000000000000000000000000020000000000000010000000000000000000000000000000000000000000000000000",
      "type": "0x2",
      "transactionHash": "0x9b828fd21a10a068fffb7564f74e31e38d2b5c5a585f5e53f03b173901cdb257",
      "transactionIndex": "0x62",
      "blockHash": "0x1faa1bd9bed414e3eb6f4167abb10ecfdbd0c0f2ae80ac231c40ccc51a56458e",
      "blockNumber": "0x9d32b4",
      "gasUsed": "0x3aa1d",
      "effectiveGasPrice": "0x305ed3eb",
      "from": "0x5ba6c6f599c74476d335b7ad34c97f9c842e8734",
      "to": "0x7177a6867296406881e20d6647232314736dd09a",
      "contractAddress": null
    },
    {
      "status": "0x1",
      "cumulativeGasUsed": "0x1672adb",
      "logs": [
        {
          "address": "0x7177a6867296406881e20d6647232314736dd09a",
          "topics": [
            "0xddf252ad1be2c89b69c2b068fc378daa952ba7f163c4a11628f55a4df523b3ef",
            "0x0000000000000000000000000000000000000000000000000000000000000000",
            "0x0000000000000000000000005ba6c6f599c74476d335b7ad34c97f9c842e8734",
            "0x00000000000000000000000000000000000000000000000000000000000000c6"
          ],
          "data": "0x",
          "blockHash": "0x1faa1bd9bed414e3eb6f4167abb10ecfdbd0c0f2ae80ac231c40ccc51a56458e",
          "blockNumber": "0x9d32b4",
          "blockTimestamp": "0x6998d66c",
          "transactionHash": "0xb802a35534d36bb4dfefa0a3f7a186ab5136e3e7e619e15e4be52d48185564f5",
          "transactionIndex": "0x63",
          "logIndex": "0xe3",
          "removed": false
        },
        {
          "address": "0x7177a6867296406881e20d6647232314736dd09a",
          "topics": [
            "0xca52e62c367d81bb2e328eb795f7c7ba24afb478408a26c0e201d155c449bc4a",
            "0x00000000000000000000000000000000000000000000000000000000000000c6",
            "0x0000000000000000000000005ba6c6f599c74476d335b7ad34c97f9c842e8734"
          ],
          "data": "0x000000000000000000000000000000000000000000000000000000000000002000000000000000000000000000000000000000000000000000000000000000c1646174613a6170706c69636174696f6e2f6a736f6e3b6261736536342c65794a755957316c496a6f6954334a685932786c49454e6f5a574e725a5849694c434a6b5a584e6a636d6c7764476c7662694936496c5a6862476c6b5958526c63794277636d6c6a5a584d67646e4d6751326868615735736157357249697769633352795958526c5a336b694f694a76636d466a62475666646d46736157526864476c7662694973496d397959574e735a534936496b5655534339565530516966513d3d00000000000000000000000000000000000000000000000000000000000000",
          "blockHash": "0x1faa1bd9bed414e3eb6f4167abb10ecfdbd0c0f2ae80ac231c40ccc51a56458e",
          "blockNumber": "0x9d32b4",
          "blockTimestamp": "0x6998d66c",
          "transactionHash": "0xb802a35534d36bb4dfefa0a3f7a186ab5136e3e7e619e15e4be52d48185564f5",
          "transactionIndex": "0x63",
          "logIndex": "0xe4",
          "removed": false
        }
      ],
      "logsBloom": "0x00000000000000500000000000000000000000000000000000000000000000000000000000000000000000200000000000020000000000000000000000200000000000000000000000000008000000020000000000000000000000000000000000000000020000000000000000000800000000000000000000000010000000000000000000000000000000000000000080000000000000000000000000000000000000000000000040000000000000000000000000000000000000000000000000000002000000000100000000000004010000000000000000000000000020000000000000010000000000000000000000000000000000000000000000000000",
      "type": "0x2",
      "transactionHash": "0xb802a35534d36bb4dfefa0a3f7a186ab5136e3e7e619e15e4be52d48185564f5",
      "transactionIndex": "0x63",
      "blockHash": "0x1faa1bd9bed414e3eb6f4167abb10ecfdbd0c0f2ae80ac231c40ccc51a56458e",
      "blockNumber": "0x9d32b4",
      "gasUsed": "0x3c064",
      "effectiveGasPrice": "0x305ed3eb",
      "from": "0x5ba6c6f599c74476d335b7ad34c97f9c842e8734",
      "to": "0x7177a6867296406881e20d6647232314736dd09a",
      "contractAddress": null
    }
  ],
  "libraries": [],
  "pending": [],
  "returns": {},
  "timestamp": 1771624045444,
  "chain": 11155111,
  "commit": null
}