{
  "transactions": [
    {
      "hash": "0x8b7e3c1055410ffc492e649a47e797afa2fcc3d2aa86cd8db4156ba70658241b",
      "transactionType": "CALL",
      "contractName": null,
      "contractAddress": "0xe03a1074c86cfedd5c142c4f04f1a1536e203543",
      "function": "initialize((address,address,uint24,int24,address),uint160)",
      "arguments": [
        "(0xCbEf7d5f764CbF65a2d499d206d1C7cc05978e4f, 0xfFf9976782d46CC05630D1f6eBAb18b2324d6B14, 3000, 60, 0xBc01DAF0b890ED562Dc325C9ee9429146eEB80C0)",
        "1584563250285286751870879006720000"
      ],
      "transaction": {
        "from": "0x5ba6c6f599c74476d335b7ad34c97f9c842e8734",
        "to": "0xe03a1074c86cfedd5c142c4f04f1a1536e203543",
        "gas": "0x11907",
        "value": "0x0",
        "input": "0x6276cbbe000000000000000000000000cbef7d5f764cbf65a2d499d206d1c7cc05978e4f000000000000000000000000fff9976782d46cc05630d1f6ebab18b2324d6b140000000000000000000000000000000000000000000000000000000000000bb8000000000000000000000000000000000000000000000000000000000000003c000000000000000000000000bc01daf0b890ed562dc325c9ee9429146eeb80c00000000000000000000000000000000000004e20000000000000000000000000",
        "nonce": "0xf",
        "chainId": "0xaa36a7"
      },
      "additionalContracts": [],
      "isFixedGasLimit": false
    }
  ],
  "receipts": [
    {
      "status": "0x1",
      "cumulativeGasUsed": "0x2058add",
      "logs": [
        {
          "address": "0xe03a1074c86cfedd5c142c4f04f1a1536e203543",
          "topics": [
            "0xdd466e674ea557f56295e2d0218a125ea4b4f0f6f3307b95f85e6110838d6438",
            "0x115103425bcd51a9c5bce5c27ffcd0c191fc91c8473956959000ba602865d8e4",
            "0x000000000000000000000000cbef7d5f764cbf65a2d499d206d1c7cc05978e4f",
            "0x000000000000000000000000fff9976782d46cc05630d1f6ebab18b2324d6b14"
          ],
          "data": "0x0000000000000000000000000000000000000000000000000000000000000bb8000000000000000000000000000000000000000000000000000000000000003c000000000000000000000000bc01daf0b890ed562dc325c9ee9429146eeb80c00000000000000000000000000000000000004e2000000000000000000000000000000000000000000000000000000000000000000000000000000000000305bf",
          "blockHash": "0x53100b038b6e92e3818ceb11e934c93d77df646b367d107946204d85022a592c",
          "blockNumber": "0x9d37c2",
          "blockTimestamp": "0x69991524",
          "transactionHash": "0x8b7e3c1055410ffc492e649a47e797afa2fcc3d2aa86cd8db4156ba70658241b",
          "transactionIndex": "0x7c",
          "logIndex": "0x146",
          "removed": false
        }
      ],
      "logsBloom": "0x00000000001400000000000000000000000000000000000000000000000000000000000000000000000000000000000000000900000000000000000000000000000000000000000000000000000000000000000000000000000000000000000000000000000000000000000000000000000000000000100000000000000010000010000000000008000004000000000000000001000000000000000000200000000000000000000000020000000000000000000000000000000000000000000000000000000000000000000001000000000000000000000000000000000000001000000000080000000000000000000000000000000000000000000000000000",
      "type": "0x2",
      "transactionHash": "0x8b7e3c1055410ffc492e649a47e797afa2fcc3d2aa86cd8db4156ba70658241b",
      "transactionIndex": "0x7c",
      "blockHash": "0x53100b038b6e92e3818ceb11e934c93d77df646b367d107946204d85022a592c",
      "blockNumber": "0x9d37c2",
      "gasUsed": "0xcb76",
      "effectiveGasPrice": "0x64f1c0c",
      "from": "0x5ba6c6f599c74476d335b7ad34c97f9c842e8734",
      "to": "0xe03a1074c86cfedd5c142c4f04f1a1536e203543",
      "contractAddress": null
    }
  ],
  "libraries": [],
  "pending": [],
  "returns": {},
  "timestamp": 1771640100649,
  "chain": 11155111,
  "commit": "13e6474"
}