{
  "transactions": [
    {
      "hash": "0x0d0202c8fa49ae774c19a99d586f198d989890f66718c117a0e38b0b4e07145f",
      "transactionType": "CALL",
      "contractName": null,
      "contractAddress": "0xfff9976782d46cc05630d1f6ebab18b2324d6b14",
      "function": "deposit()",
      "arguments": [],
      "transaction": {
        "from": "0x5ba6c6f599c74476d335b7ad34c97f9c842e8734",
        "to": "0xfff9976782d46cc05630d1f6ebab18b2324d6b14",
        "gas": "0x9f9b",
        "value": "0x11c37937e08000",
        "input": "0xd0e30db0",
        "nonce": "0x17",
        "chainId": "0xaa36a7"
      },
      "additionalContracts": [],
      "isFixedGasLimit": false
    },
    {
      "hash": "0x2bf66b10bf4798d59184201a5dad1ef3216a3e268c8e4081d5ea03dd1b3eac86",
      "transactionType": "CALL",
      "contractName": "MockUSDC",
      "contractAddress": "0xcbef7d5f764cbf65a2d499d206d1c7cc05978e4f",
      "function": "approve(address,uint256)",
      "arguments": [
        "0x000000000022D473030F116dDEE9F6B43aC78BA3",
        "115792089237316195423570985008687907853269984665640564039457584007913129639935"
      ],
      "transaction": {
        "from": "0x5ba6c6f599c74476d335b7ad34c97f9c842e8734",
        "to": "0xcbef7d5f764cbf65a2d499d206d1c7cc05978e4f",
        "gas": "0x9048",
        "value": "0x0",
        "input": "0x095ea7b3000000000000000000000000000000000022d473030f116ddee9f6b43ac78ba3ffffffffffffffffffffffffffffffffffffffffffffffffffffffffffffffff",
        "nonce": "0x18",
        "chainId": "0xaa36a7"
      },
      "additionalContracts": [],
      "isFixedGasLimit": false
    },
    {
      "hash": "0x42f103b18ca37b44286eee2c1139abc295917465f417405c7d343c2d76fdd429",
      "transactionType": "CALL",
      "contractName": null,
      "contractAddress": "0xfff9976782d46cc05630d1f6ebab18b2324d6b14",
      "function": "approve(address,uint256)",
      "arguments": [
        "0x000000000022D473030F116dDEE9F6B43aC78BA3",
        "115792089237316195423570985008687907853269984665640564039457584007913129639935"
      ],
      "transaction": {
        "from": "0x5ba6c6f599c74476d335b7ad34c97f9c842e8734",
        "to": "0xfff9976782d46cc05630d1f6ebab18b2324d6b14",
        "gas": "0x8e76",
        "value": "0x0",
        "input": "0x095ea7b3000000000000000000000000000000000022d473030f116ddee9f6b43ac78ba3ffffffffffffffffffffffffffffffffffffffffffffffffffffffffffffffff",
        "nonce": "0x19",
        "chainId": "0xaa36a7"
      },
      "additionalContracts": [],
      "isFixedGasLimit": false
    },
    {
      "hash": "0x0a2ba94a281be3bd835bfd756879b9da56f46849c28066c69c6427eef05abdcf",
      "transactionType": "CALL",
      "contractName": null,
      "contractAddress": "0x000000000022d473030f116ddee9f6b43ac78ba3",
      "function": "approve(address,address,uint160,uint48)",
      "arguments": [
        "0xCbEf7d5f764CbF65a2d499d206d1C7cc05978e4f",
        "0x429ba70129df741B2Ca2a85BC3A2a3328e5c09b4",
        "1461501637330902918203684832716283019655932542975",
        "281474976710655"
      ],
      "transaction": {
        "from": "0x5ba6c6f599c74476d335b7ad34c97f9c842e8734",
        "to": "0x000000000022d473030f116ddee9f6b43ac78ba3",
        "gas": "0x96a0",
        "value": "0x0",
        "input": "0x87517c45000000000000000000000000cbef7d5f764cbf65a2d499d206d1c7cc05978e4f000000000000000000000000429ba70129df741b2ca2a85bc3a2a3328e5c09b4000000000000000000000000ffffffffffffffffffffffffffffffffffffffff0000000000000000000000000000000000000000000000000000ffffffffffff",
        "nonce": "0x1a",
        "chainId": "0xaa36a7"
      },
      "additionalContracts": [],
      "isFixedGasLimit": false
    },
    {
      "hash": "0xa1fddffc31951927b3b9ad362f9fcedd0cde2a8f192dd84562d42abe22f2d0d1",
      "transactionType": "CALL",
      "contractName": null,
      "contractAddress": "0x000000000022d473030f116ddee9f6b43ac78ba3",
      "function": "approve(address,address,uint160,uint48)",
      "arguments": [
        "0xfFf9976782d46CC05630D1f6eBAb18b2324d6B14",
        "0x429ba70129df741B2Ca2a85BC3A2a3328e5c09b4",
        "1461501637330902918203684832716283019655932542975",
        "281474976710655"
      ],
      "transaction": {
        "from": "0x5ba6c6f599c74476d335b7ad34c97f9c842e8734",
        "to": "0x000000000022d473030f116ddee9f6b43ac78ba3",
        "gas": "0x96a0",
        "value": "0x0",
        "input": "0x87517c45000000000000000000000000fff9976782d46cc05630d1f6ebab18b2324d6b14000000000000000000000000429ba70129df741b2ca2a85bc3a2a3328e5c09b4000000000000000000000000ffffffffffffffffffffffffffffffffffffffff0000000000000000000000000000000000000000000000000000ffffffffffff",
        "nonce": "0x1b",
        "chainId": "0xaa36a7"
      },
      "additionalContracts": [],
      "isFixedGasLimit": false
    },
    {
      "hash": "0xc1cc1f290827545079d4d6c665abcc796f5efd826d6b42bc249f12862038c7c4",
      "transactionType": "CALL",
      "contractName": null,
      "contractAddress": "0x429ba70129df741b2ca2a85bc3a2a3328e5c09b4",
      "function": "modifyLiquidities(bytes,uint256)",
      "arguments": [
        "0x0000000000000000000000000000000000000000000000000000000000000040000000000000000000000000000000000000000000000000000000000000008000000000000000000000000000000000000000000000000000000000000000030212120000000000000000000000000000000000000000000000000000000000000000000000000000000000000000000000000000000000000000000000000300000000000000000000000000000000000000000000000000000000000000600000000000000000000000000000000000000000000000000000000000000220000000000000000000000000000000000000000000000000000000000000026000000000000000000000000000000000000000000000000000000000000001a0000000000000000000000000cbef7d5f764cbf65a2d499d206d1c7cc05978e4f000000000000000000000000fff9976782d46cc05630d1f6ebab18b2324d6b140000000000000000000000000000000000000000000000000000000000000bb8000000000000000000000000000000000000000000000000000000000000003c000000000000000000000000bc01daf0b890ed562dc325c9ee9429146eeb80c0fffffffffffffffffffffffffffffffffffffffffffffffffffffffffff2764c00000000000000000000000000000000000000000000000000000000000d89b4000000000000000000000000000000000000000000000000000000e8d4a5100000000000000000000000000000000000ffffffffffffffffffffffffffffffff00000000000000000000000000000000ffffffffffffffffffffffffffffffff0000000000000000000000005ba6c6f599c74476d335b7ad34c97f9c842e8734000000000000000000000000000000000000000000000000000000000000018000000000000000000000000000000000000000000000000000000000000000000000000000000000000000000000000000000000000000000000000000000020000000000000000000000000cbef7d5f764cbf65a2d499d206d1c7cc05978e4f0000000000000000000000000000000000000000000000000000000000000020000000000000000000000000fff9976782d46cc05630d1f6ebab18b2324d6b14",
        "1771641744"
      ],
      "transaction": {
        "from": "0x5ba6c6f599c74476d335b7ad34c97f9c842e8734",
        "to": "0x429ba70129df741b2ca2a85bc3a2a3328e5c09b4",
        "gas": "0x68273",
        "value": "0x0",
        "input": "0xdd46508f00000000000000000000000000000000000000000000000000000000000000400000000000000000000000000000000000000000000000000000000069991b9000000000000000000000000000000000000000000000000000000000000003400000000000000000000000000000000000000000000000000000000000000040000000000000000000000000000000000000000000000000000000000000008000000000000000000000000000000000000000000000000000000000000000030212120000000000000000000000000000000000000000000000000000000000000000000000000000000000000000000000000000000000000000000000000300000000000000000000000000000000000000000000000000000000000000600000000000000000000000000000000000000000000000000000000000000220000000000000000000000000000000000000000000000000000000000000026000000000000000000000000000000000000000000000000000000000000001a0000000000000000000000000cbef7d5f764cbf65a2d499d206d1c7cc05978e4f000000000000000000000000fff9976782d46cc05630d1f6ebab18b2324d6b140000000000000000000000000000000000000000000000000000000000000bb8000000000000000000000000000000000000000000000000000000000000003c000000000000000000000000bc01daf0b890ed562dc325c9ee9429146eeb80c0fffffffffffffffffffffffffffffffffffffffffffffffffffffffffff2764c00000000000000000000000000000000000000000000000000000000000d89b4000000000000000000000000000000000000000000000000000000e8d4a5100000000000000000000000000000000000ffffffffffffffffffffffffffffffff00000000000000000000000000000000ffffffffffffffffffffffffffffffff0000000000000000000000005ba6c6f599c74476d335b7ad34c97f9c842e8734000000000000000000000000000000000000000000000000000000000000018000000000000000000000000000000000000000000000000000000000000000000000000000000000000000000000000000000000000000000000000000000020000000000000000000000000cbef7d5f764cbf65a2d499d206d1c7cc05978e4f0000000000000000000000000000000000000000000000000000000000000020000000000000000000000000fff9976782d46cc05630d1f6ebab18b2324d6b14",
        "nonce": "0x1c",
        "chainId": "0xaa36a7"
      },
      "additionalContracts": [],
      "isFixedGasLimit": false
    }
  ],
  "receipts": [
    {
      "status": "0x1",
      "cumulativeGasUsed": "0x34da3f",
      "logs": [
        {
          "address": "0xfff9976782d46cc05630d1f6ebab18b2324d6b14",
          "topics": [
            "0xe1fffcc4923d04b559f4d29a8bfc6cda04eb5b0d3c460751c2402c5c5cc9109c",
            "0x0000000000000000000000005ba6c6f599c74476d335b7ad34c97f9c842e8734"
          ],
          "data": "0x0000000000000000000000000000000000000000000000000011c37937e08000",
          "blockHash": "0x5faf647522cbe9443abcb216c82de5e07c84df5f8f10b9b6380d23fbf8e7b881",
          "blockNumber": "0x9d382d",
          "blockTimestamp": "0x69991a7c",
          "transactionHash": "0x42f103b18ca37b44286eee2c1139abc295917465f417405c7d343c2d76fdd429",
          "transactionIndex": "0x2c",
          "logIndex": "0x2d",
          "removed": false
        }
      ],
      "logsBloom": "0x00000000000000000000000000000000000000000000000000000000000000000000000000000000000000000000000000020000000000000000000000000000000000000000000000000000000000000000000000000000000000008000000000000000000000000000000000000000000000000000000000000000000000000040000000000000000000000000000000000001000000000000000000000000000020000000000000000000000000000000000000000000000000000000000000000000000000000102000000000000010000000000000000000000000000000000000000000000000000000000000000000000000000400000000000000000",
      "type": "0x2",
      "transactionHash": "0x42f103b18ca37b44286eee2c1139abc295917465f417405c7d343c2d76fdd429",
      "transactionIndex": "0x2c",
      "blockHash": "0x5faf647522cbe9443abcb216c82de5e07c84df5f8f10b9b6380d23fbf8e7b881",
      "blockNumber": "0x9d382d",
      "gasUsed": "0x6d22",
      "effectiveGasPrice": "0x5fbc1bd",
      "from": "0x5ba6c6f599c74476d335b7ad34c97f9c842e8734",
      "to": "0xfff9976782d46cc05630d1f6ebab18b2324d6b14",
      "contractAddress": null
    },
    {
      "status": "0x1",
      "cumulativeGasUsed": "0x3542b5",
      "logs": [
        {
          "address": "0xcbef7d5f764cbf65a2d499d206d1c7cc05978e4f",
          "topics": [
            "0x8c5be1e5ebec7d5bd14f71427d1e84f3dd0314c0f7b2291e5b200ac8c7c3b925",
            "0x0000000000000000000000005ba6c6f599c74476d335b7ad34c97f9c842e8734",
            "0x000000000000000000000000000000000022d473030f116ddee9f6b43ac78ba3"
          ],
          "data": "0xffffffffffffffffffffffffffffffffffffffffffffffffffffffffffffffff",
          "blockHash": "0x5faf647522cbe9443abcb216c82de5e07c84df5f8f10b9b6380d23fbf8e7b881",
          "blockNumber": "0x9d382d",
          "blockTimestamp": "0x69991a7c",
          "transactionHash": "0x2bf66b10bf4798d59184201a5dad1ef3216a3e268c8e4081d5ea03dd1b3eac86",
          "transactionIndex": "0x2d",
          "logIndex": "0x2e",
          "removed": false
        }
      ],
      "logsBloom": "0x00000000000000000000000000000000000000000000000000000000000000000000000000000000000000000000000000020000800000000000000000200000000000000000000000004000000000000000000000000800000000000000000000000000000000000000000000000000000000000000000000000000000000000000000000000000000000000000000000000000000000000000000000000000020000000000000000000000000000000000000000000000000000000000000000000000000000000100000000000000010000000000000000000000000000000010000000000000000002000000000000002000000000000000000040000000",
      "type": "0x2",
      "transactionHash": "0x2bf66b10bf4798d59184201a5dad1ef3216a3e268c8e4081d5ea03dd1b3eac86",
      "transactionIndex": "0x2d",
      "blockHash": "0x5faf647522cbe9443abcb216c82de5e07c84df5f8f10b9b6380d23fbf8e7b881",
      "blockNumber": "0x9d382d",
      "gasUsed": "0x6876",
      "effectiveGasPrice": "0x5fbc1bd",
      "from": "0x5ba6c6f599c74476d335b7ad34c97f9c842e8734",
      "to": "0xcbef7d5f764cbf65a2d499d206d1c7cc05978e4f",
      "contractAddress": null
    },
    {
      "status": "0x1",
      "cumulativeGasUsed": "0x35a9d9",
      "logs": [
        {
          "address": "0xfff9976782d46cc05630d1f6ebab18b2324d6b14",
          "topics": [
            "0x8c5be1e5ebec7d5bd14f71427d1e84f3dd0314c0f7b2291e5b200ac8c7c3b925",
            "0x0000000000000000000000005ba6c6f599c74476d335b7ad34c97f9c842e8734",
            "0x000000000000000000000000000000000022d473030f116ddee9f6b43ac78ba3"
          ],
          "data": "0xffffffffffffffffffffffffffffffffffffffffffffffffffffffffffffffff",
          "blockHash": "0x5faf647522cbe9443abcb216c82de5e07c84df5f8f10b9b6380d23fbf8e7b881",
          "blockNumber": "0x9d382d",
          "blockTimestamp": "0x69991a7c",
          "transactionHash": "0xc1cc1f290827545079d4d6c665abcc796f5efd826d6b42bc249f12862038c7c4",
          "transactionIndex": "0x2e",
          "logIndex": "0x2f",
          "removed": false
        }
      ],
      "logsBloom": "0x00000000000000000000000000000000000000000000000000000000000000000000000000000000000000000000000000020000800000000000000000200000000000000000000000004000000000000000000000000800000000000000000000000000000000000000000000000000000000000000000000000000000000000040000000000000000000000000000000000000000000000000000000000000020020000000000000000000000000000000000000000000000000000000000000000000000000000102000000000000010000000000000000000000000000000010000000000000000000000000000000000000000000000000000000000000",
      "type": "0x2",
      "transactionHash": "0xc1cc1f290827545079d4d6c665abcc796f5efd826d6b42bc249f12862038c7c4",
      "transactionIndex": "0x2e",
      "blockHash": "0x5faf647522cbe9443abcb216c82de5e07c84df5f8f10b9b6380d23fbf8e7b881",
      "blockNumber": "0x9d382d",
      "gasUsed": "0x6724",
      "effectiveGasPrice": "0x5fbc1bd",
      "from": "0x5ba6c6f599c74476d335b7ad34c97f9c842e8734",
      "to": "0xfff9976782d46cc05630d1f6ebab18b2324d6b14",
      "contractAddress": null
    },
    {
      "status": "0x1",
      "cumulativeGasUsed": "0x3616e7",
      "logs": [
        {
          "address": "0x000000000022d473030f116ddee9f6b43ac78ba3",
          "topics": [
            "0xda9fa7c1b00402c17d0161b249b1ab8bbec047c5a52207b9c112deffd817036b",
            "0x0000000000000000000000005ba6c6f599c74476d335b7ad34c97f9c842e8734",
            "0x000000000000000000000000cbef7d5f764cbf65a2d499d206d1c7cc05978e4f",
            "0x000000000000000000000000429ba70129df741b2ca2a85bc3a2a3328e5c09b4"
          ],
          "data": "0x000000000000000000000000ffffffffffffffffffffffffffffffffffffffff0000000000000000000000000000000000000000000000000000ffffffffffff",
          "blockHash": "0x5faf647522cbe9443abcb216c82de5e07c84df5f8f10b9b6380d23fbf8e7b881",
          "blockNumber": "0x9d382d",
          "blockTimestamp": "0x69991a7c",
          "transactionHash": "0x0d0202c8fa49ae774c19a99d586f198d989890f66718c117a0e38b0b4e07145f",
          "transactionIndex": "0x2f",
          "logIndex": "0x30",
          "removed": false
        }
      ],
      "logsBloom": "0x00010000000000000000000000000000000000000000000000000000000000000000000000000040080000000000000000020000000000000000000000080000000000000000000000000000000000000000000000000000000000000000000000000000000000000000000000000000000000000000000000000800000010000030000000000000000000000000000000000000000000000000000000000000000000000000000000000000000000000000000000000000000000080000000000000000000000000100000000000000010000000000000040000000000000000000000000080000000000000000000000000000000000000000000000000400",
      "type": "0x2",
      "transactionHash": "0x0d0202c8fa49ae774c19a99d586f198d989890f66718c117a0e38b0b4e07145f",
      "transactionIndex": "0x2f",
      "blockHash": "0x5faf647522cbe9443abcb216c82de5e07c84df5f8f10b9b6380d23fbf8e7b881",
      "blockNumber": "0x9d382d",
      "gasUsed": "0x6d0e",
      "effectiveGasPrice": "0x5fbc1bd",
      "from": "0x5ba6c6f599c74476d335b7ad34c97f9c842e8734",
      "to": "0x000000000022d473030f116ddee9f6b43ac78ba3",
      "contractAddress": null
    },
    {
      "status": "0x1",
      "cumulativeGasUsed": "0x3683f5",
      "logs": [
        {
          "address": "0x000000000022d473030f116ddee9f6b43ac78ba3",
          "topics": [
            "0xda9fa7c1b00402c17d0161b249b1ab8bbec047c5a52207b9c112deffd817036b",
            "0x0000000000000000000000005ba6c6f599c74476d335b7ad34c97f9c842e8734",
            "0x000000000000000000000000fff9976782d46cc05630d1f6ebab18b2324d6b14",
            "0x000000000000000000000000429ba70129df741b2ca2a85bc3a2a3328e5c09b4"
          ],
          "data": "0x000000000000000000000000ffffffffffffffffffffffffffffffffffffffff0000000000000000000000000000000000000000000000000000ffffffffffff",
          "blockHash": "0x5faf647522cbe9443abcb216c82de5e07c84df5f8f10b9b6380d23fbf8e7b881",
          "blockNumber": "0x9d382d",
          "blockTimestamp": "0x69991a7c",
          "transactionHash": "0x0a2ba94a281be3bd835bfd756879b9da56f46849c28066c69c6427eef05abdcf",
          "transactionIndex": "0x30",
          "logIndex": "0x31",
          "removed": false
        }
      ],
      "logsBloom": "0x00010000001000000000000000000000000000000000000000000000000000000000000000000040080000000000000000020800000000000000000000080000000000000000000000000000000000000000000000000000000000000000000000000000000000000000000000000000000000000000000000000800000000000020000000000000000000000000000000000000000000000000000000000000000000000000000000000000000000000000000000000000000000080000000000000000000000000100000001000000010000000000000040000000000000000000000000000000000000000000000000000000000000000000000000000400",
      "type": "0x2",
      "transactionHash": "0x0a2ba94a281be3bd835bfd756879b9da56f46849c28066c69c6427eef05abdcf",
      "transactionIndex": "0x30",
      "blockHash": "0x5faf647522cbe9443abcb216c82de5e07c84df5f8f10b9b6380d23fbf8e7b881",
      "blockNumber": "0x9d382d",
      "gasUsed": "0x6d0e",
      "effectiveGasPrice": "0x5fbc1bd",
      "from": "0x5ba6c6f599c74476d335b7ad34c97f9c842e8734",
      "to": "0x000000000022d473030f116ddee9f6b43ac78ba3",
      "contractAddress": null
    },
    {
      "status": "0x1",
      "cumulativeGasUsed": "0x3b3a71",
      "logs": [
        {
          "address": "0x429ba70129df741b2ca2a85bc3a2a3328e5c09b4",
          "topics": [
            "0xddf252ad1be2c89b69c2b068fc378daa952ba7f163c4a11628f55a4df523b3ef",
            "0x0000000000000000000000000000000000000000000000000000000000000000",
            "0x0000000000000000000000005ba6c6f599c74476d335b7ad34c97f9c842e8734",
            "0x0000000000000000000000000000000000000000000000000000000000005c9a"
          ],
          "data": "0x",
          "blockHash": "0x5faf647522cbe9443abcb216c82de5e07c84df5f8f10b9b6380d23fbf8e7b881",
          "blockNumber": "0x9d382d",
          "blockTimestamp": "0x69991a7c",
          "transactionHash": "0xa1fddffc31951927b3b9ad362f9fcedd0cde2a8f192dd84562d42abe22f2d0d1",
          "transactionIndex": "0x31",
          "logIndex": "0x32",
          "removed": false
        },
        {
          "address": "0xe03a1074c86cfedd5c142c4f04f1a1536e203543",
          "topics": [
            "0xf208f4912782fd25c7f114ca3723a2d5dd6f3bcc3ac8db5af63baa85f711d5ec",
            "0x115103425bcd51a9c5bce5c27ffcd0c191fc91c8473956959000ba602865d8e4",
            "0x000000000000000000000000429ba70129df741b2ca2a85bc3a2a3328e5c09b4"
          ],
          "data": "0xfffffffffffffffffffffffffffffffffffffffffffffffffffffffffff2764c00000000000000000000000000000000000000000000000000000000000d89b4000000000000000000000000000000000000000000000000000000e8d4a510000000000000000000000000000000000000000000000000000000000000005c9a",
          "blockHash": "0x5faf647522cbe9443abcb216c82de5e07c84df5f8f10b9b6380d23fbf8e7b881",
          "blockNumber": "0x9d382d",
          "blockTimestamp": "0x69991a7c",
          "transactionHash": "0xa1fddffc31951927b3b9ad362f9fcedd0cde2a8f192dd84562d42abe22f2d0d1",
          "transactionIndex": "0x31",
          "logIndex": "0x33",
          "removed": false
        },
        {
          "address": "0xcbef7d5f764cbf65a2d499d206d1c7cc05978e4f",
          "topics": [
            "0xddf252ad1be2c89b69c2b068fc378daa952ba7f163c4a11628f55a4df523b3ef",
            "0x0000000000000000000000005ba6c6f599c74476d335b7ad34c97f9c842e8734",
            "0x000000000000000000000000e03a1074c86cfedd5c142c4f04f1a1536e203543"
          ],
          "data": "0x0000000000000000000000000000000000000000000000000000000002faf080",
          "blockHash": "0x5faf647522cbe9443abcb216c82de5e07c84df5f8f10b9b6380d23fbf8e7b881",
          "blockNumber": "0x9d382d",
          "blockTimestamp": "0x69991a7c",
          "transactionHash": "0xa1fddffc31951927b3b9ad362f9fcedd0cde2a8f192dd84562d42abe22f2d0d1",
          "transactionIndex": "0x31",
          "logIndex": "0x34",
          "removed": false
        },
        {
          "address": "0xfff9976782d46cc05630d1f6ebab18b2324d6b14",
          "topics": [
            "0xddf252ad1be2c89b69c2b068fc378daa952ba7f163c4a11628f55a4df523b3ef",
            "0x0000000000000000000000005ba6c6f599c74476d335b7ad34c97f9c842e8734",
            "0x000000000000000000000000e03a1074c86cfedd5c142c4f04f1a1536e203543"
          ],
          "data": "0x00000000000000000000000000000000000000000000000000470de4df820000",
          "blockHash": "0x5faf647522cbe9443abcb216c82de5e07c84df5f8f10b9b6380d23fbf8e7b881",
          "blockNumber": "0x9d382d",
          "blockTimestamp": "0x69991a7c",
          "transactionHash": "0xa1fddffc31951927b3b9ad362f9fcedd0cde2a8f192dd84562d42abe22f2d0d1",
          "transactionIndex": "0x31",
          "logIndex": "0x35",
          "removed": false
        }
      ],
      "logsBloom": "0x00000000000400000000001000000000000000000000000000000000080000000000000000000040080000000000000000020100000000000000020000000000000000000000000040000008000000000000000000000000000000000000000000000000020000000000000080000800000000000000100000000810000000000040000001000000000014000000000000000000000000000000000000000000000024000000000000020000000000000000000000400000000000000000000000000002000000000102000000000100010000000000000000001000000020001000000000000000000002000000000004002000000000000000000040000000",
      "type": "0x2",
      "transactionHash": "0xa1fddffc31951927b3b9ad362f9fcedd0cde2a8f192dd84562d42abe22f2d0d1",
      "transactionIndex": "0x31",
      "blockHash": "0x5faf647522cbe9443abcb216c82de5e07c84df5f8f10b9b6380d23fbf8e7b881",
      "blockNumber": "0x9d382d",
      "gasUsed": "0x4b67c",
      "effectiveGasPrice": "0x5fbc1bd",
      "from": "0x5ba6c6f599c74476d335b7ad34c97f9c842e8734",
      "to": "0x429ba70129df741b2ca2a85bc3a2a3328e5c09b4",
      "contractAddress": null
    }
  ],
  "libraries": [],
  "pending": [],
  "returns": {},
  "timestamp": 1771641469758,
  "chain": 11155111,
  "commit": "2c4a59d"
}