{
  "transactions": [
    {
      "hash": "0xb5051f986a21ab46fbaef213d5180b423243d1aac9d250b4d42e67d653143a0a",
      "transactionType": "CALL",
      "contractName": null,
      "contractAddress": "0x7177a6867296406881e20d6647232314736dd09a",
      "function": "register(string)",
      "arguments": [
        "data:application/json;base64,eyJuYW1lIjoiVW5yZWxpYWJsZSBCb3QiLCJkZXNjcmlwdGlvbiI6IkEgdGVzdCBhZ2VudCB3aXRoIHBvb3IgcGVyZm9ybWFuY2UgZm9yIGRlbW8gcHVycG9zZXMiLCJzdHJhdGVneSI6Im5vbmUiLCJzdGF0dXMiOiJ1bnRydXN0ZWQifQ=="
      ],
      "transaction": {
        "from": "0x5ba6c6f599c74476d335b7ad34c97f9c842e8734",
        "to": "0x7177a6867296406881e20d6647232314736dd09a",
        "gas": "0x52f93",
        "value": "0x0",
        "input": "0xf2c298be000000000000000000000000000000000000000000000000000000000000002000000000000000000000000000000000000000000000000000000000000000d1646174613a6170706c69636174696f6e2f6a736f6e3b6261736536342c65794a755957316c496a6f69565735795a57787059574a735a534243623351694c434a6b5a584e6a636d6c7764476c7662694936496b45676447567a644342685a325675644342336158526f4948427662334967634756795a6d397962574675593255675a6d39794947526c62573867634856796347397a5a584d694c434a7a64484a686447566e65534936496d3576626d55694c434a7a6447463064584d694f694a31626e527964584e305a57516966513d3d000000000000000000000000000000",
        "nonce": "0xb",
        "chainId": "0xaa36a7"
      },
      "additionalContracts": [],
      "isFixedGasLimit": false
    }
  ],
  "receipts": [
    {
      "status": "0x1",
      "cumulativeGasUsed": "0x3b3673",
      "logs": [
        {
          "address": "0x7177a6867296406881e20d6647232314736dd09a",
          "topics": [
            "0xddf252ad1be2c89b69c2b068fc378daa952ba7f163c4a11628f55a4df523b3ef",
            "0x0000000000000000000000000000000000000000000000000000000000000000",
            "0x0000000000000000000000005ba6c6f599c74476d335b7ad34c97f9c842e8734",
            "0x00000000000000000000000000000000000000000000000000000000000000c8"
          ],
          "data": "0x",
          "blockHash": "0x33b8ca18546f1596335eef042975ee30dd646bf837c8abd17d43ccc22b048ef8",
          "blockNumber": "0x9d342e",
          "blockTimestamp": "0x6998e914",
          "transactionHash": "0xb5051f986a21ab46fbaef213d5180b423243d1aac9d250b4d42e67d653143a0a",
          "transactionIndex": "0x29",
          "logIndex": "0x43",
          "removed": false
        },
        {
          "address": "0x7177a6867296406881e20d6647232314736dd09a",
          "topics": [
            "0xca52e62c367d81bb2e328eb795f7c7ba24afb478408a26c0e201d155c449bc4a",
            "0x00000000000000000000000000000000000000000000000000000000000000c8",
            "0x0000000000000000000000005ba6c6f599c74476d335b7ad34c97f9c842e8734"
          ],
          "data": "0x000000000000000000000000000000000000000000000000000000000000002000000000000000000000000000000000000000000000000000000000000000d1646174613a6170706c69636174696f6e2f6a736f6e3b6261736536342c65794a755957316c496a6f69565735795a57787059574a735a534243623351694c434a6b5a584e6a636d6c7764476c7662694936496b45676447567a644342685a325675644342336158526f4948427662334967634756795a6d397962574675593255675a6d39794947526c62573867634856796347397a5a584d694c434a7a64484a686447566e65534936496d3576626d55694c434a7a6447463064584d694f694a31626e527964584e305a57516966513d3d000000000000000000000000000000",
          "blockHash": "0x33b8ca18546f1596335eef042975ee30dd646bf837c8abd17d43ccc22b048ef8",
          "blockNumber": "0x9d342e",
          "blockTimestamp": "0x6998e914",
          "transactionHash": "0xb5051f986a21ab46fbaef213d5180b423243d1aac9d250b4d42e67d653143a0a",
          "transactionIndex": "0x29",
          "logIndex": "0x44",
          "removed": false
        }
      ],
      "logsBloom": "0x00000000000000400000000000000020000000000000000000000000800000000000000000000000000000200000000000020000000000000000000000200000000000000000000000000008000000000000000000000000000000000000000000000000020000000000000000000800000080000000000000000010000000000000000000000000000000000000000080000000000000000000000000000000000000000000000040000000000000000000000000000000000000000000000000000002000000000100000000000000010000000000000000000000000020000000000000010000000000000000000000000000000000000000000000000000",
      "type": "0x2",
      "transactionHash": "0xb5051f986a21ab46fbaef213d5180b423243d1aac9d250b4d42e67d653143a0a",
      "transactionIndex": "0x29",
      "blockHash": "0x33b8ca18546f1596335eef042975ee30dd646bf837c8abd17d43ccc22b048ef8",
      "blockNumber": "0x9d342e",
      "gasUsed": "0x3c124",
      "effectiveGasPrice": "0x64f432f",
      "from": "0x5ba6c6f599c74476d335b7ad34c97f9c842e8734",
      "to": "0x7177a6867296406881e20d6647232314736dd09a",
      "contractAddress": null
    }
  ],
  "libraries": [],
  "pending": [],
  "returns": {},
  "timestamp": 1771628821127,
  "chain": 11155111,
  "commit": "94cba12"
}