{
  "transactions": [
    {
      "hash": "0x03083ec635618c9e08a64da92a873cc67526084ebd536b7dab9bcf9cdca1593a",
      "transactionType": "CALL",
      "contractName": null,
      "contractAddress": "0x7177a6867296406881e20d6647232314736dd09a",
      "function": "register(string)",
      "arguments": [
        "data:application/json;base64,eyJuYW1lIjoiVGltZSBPcHRpbWl6ZXIiLCJkZXNjcmlwdGlvbiI6IkFkanVzdHMgbGltaXRzIGJhc2VkIG9uIHRpbWUgb2YgZGF5LiBTdHJpY3RlciBkdXJpbmcgdm9sYXRpbGUgaG91cnMgKDE0OjAwLTE4OjAwIFVUQykiLCJzdHJhdGVneSI6InRpbWUtYmFzZWQiLCJ2b2xhdGlsZUhvdXJzIjoiMTQ6MDAtMTg6MDAgVVRDIiwibm9ybWFsTWF4QW1vdW50IjoiNSBFVEgiLCJ2b2xhdGlsZU1heEFtb3VudCI6IjAuMSBFVEgifQ=="
      ],
      "transaction": {
        "from": "0x5ba6c6f599c74476d335b7ad34c97f9c842e8734",
        "to": "0x7177a6867296406881e20d6647232314736dd09a",
        "gas": "0x80ed3",
        "value": "0x0",
        "input": "0xf2c298be00000000000000000000000000000000000000000000000000000000000000200000000000000000000000000000000000000000000000000000000000000161646174613a6170706c69636174696f6e2f6a736f6e3b6261736536342c65794a755957316c496a6f6956476c745a5342506348527062576c365a5849694c434a6b5a584e6a636d6c7764476c7662694936496b466b616e567a64484d6762476c746158527a49474a686332566b494739754948527062575567623259675a4746354c69425464484a705933526c6369426b64584a70626d6367646d3973595852706247556761473931636e4d674b4445304f6a41774c5445344f6a41774946565551796b694c434a7a64484a686447566e65534936496e527062575574596d467a5a5751694c434a326232786864476c735a55687664584a7a496a6f694d5451364d4441744d5467364d4441675656524449697769626d397962574673545746345157317664573530496a6f694e534246564567694c434a326232786864476c735a553168654546746233567564434936496a41754d5342465645676966513d3d00000000000000000000000000000000000000000000000000000000000000",
        "nonce": "0xa",
        "chainId": "0xaa36a7"
      },
      "additionalContracts": [],
      "isFixedGasLimit": false
    }
  ],
  "receipts": [
    {
      "status": "0x1",
      "cumulativeGasUsed": "0x170ef06",
      "logs": [
        {
          "address": "0x7177a6867296406881e20d6647232314736dd09a",
          "topics": [
            "0xddf252ad1be2c89b69c2b068fc378daa952ba7f163c4a11628f55a4df523b3ef",
            "0x0000000000000000000000000000000000000000000000000000000000000000",
            "0x0000000000000000000000005ba6c6f599c74476d335b7ad34c97f9c842e8734",
            "0x00000000000000000000000000000000000000000000000000000000000000c7"
          ],
          "data": "0x",
          "blockHash": "0x309e74f62f42939f655b80d605358bf9a2dae76e5ce7749971c440218900f995",
          "blockNumber": "0x9d33ce",
          "blockTimestamp": "0x6998e47c",
          "transactionHash": "0x03083ec635618c9e08a64da92a873cc67526084ebd536b7dab9bcf9cdca1593a",
          "transactionIndex": "0x53",
          "logIndex": "0xb5",
          "removed": false
        },
        {
          "address": "0x7177a6867296406881e20d6647232314736dd09a",
          "topics": [
            "0xca52e62c367d81bb2e328eb795f7c7ba24afb478408a26c0e201d155c449bc4a",
            "0x00000000000000000000000000000000000000000000000000000000000000c7",
            "0x0000000000000000000000005ba6c6f599c74476d335b7ad34c97f9c842e8734"
          ],
          "data": "0x00000000000000000000000000000000000000000000000000000000000000200000000000000000000000000000000000000000000000000000000000000161646174613a6170706c69636174696f6e2f6a736f6e3b6261736536342c65794a755957316c496a6f6956476c745a5342506348527062576c365a5849694c434a6b5a584e6a636d6c7764476c7662694936496b466b616e567a64484d6762476c746158527a49474a686332566b494739754948527062575567623259675a4746354c69425464484a705933526c6369426b64584a70626d6367646d3973595852706247556761473931636e4d674b4445304f6a41774c5445344f6a41774946565551796b694c434a7a64484a686447566e65534936496e527062575574596d467a5a5751694c434a326232786864476c735a55687664584a7a496a6f694d5451364d4441744d5467364d4441675656524449697769626d397962574673545746345157317664573530496a6f694e534246564567694c434a326232786864476c735a553168654546746233567564434936496a41754d5342465645676966513d3d00000000000000000000000000000000000000000000000000000000000000",
          "blockHash": "0x309e74f62f42939f655b80d605358bf9a2dae76e5ce7749971c440218900f995",
          "blockNumber": "0x9d33ce",
          "blockTimestamp": "0x6998e47c",
          "transactionHash": "0x03083ec635618c9e08a64da92a873cc67526084ebd536b7dab9bcf9cdca1593a",
          "transactionIndex": "0x53",
          "logIndex": "0xb6",
          "removed": false
        }
      ],
      "logsBloom": "0x00000000000000400000000000000000000000000000000000000000000000000000000000000000000000200000000000020000000000000000000000200000000000000000000000000008000000400000000000000000000000000000000000000000020000000000000000000800000000000000000000000010000001000000000000000000000000000000000080000000000000000000000000000000000000000000000040000000000000000000000000000000000000000000000000000002000100000100000000000000010000000000000000000000000020000000000000010000000000000000000000000000000000000000000000000000",
      "type": "0x2",
      "transactionHash": "0x03083ec635618c9e08a64da92a873cc67526084ebd536b7dab9bcf9cdca1593a",
      "transactionIndex": "0x53",
      "blockHash": "0x309e74f62f42939f655b80d605358bf9a2dae76e5ce7749971c440218900f995",
      "blockNumber": "0x9d33ce",
      "gasUsed": "0x5827b",
      "effectiveGasPrice": "0x9fc8654",
      "from": "0x5ba6c6f599c74476d335b7ad34c97f9c842e8734",
      "to": "0x7177a6867296406881e20d6647232314736dd09a",
      "contractAddress": null
    }
  ],
  "libraries": [],
  "pending": [],
  "returns": {},
  "timestamp": 1771627644555,
  "chain": 11155111,
  "commit": "04f361e"
}